:020000040000fa
:080000000001040000000000f3
:020000040000fa
:100008002604000026040000260400002604000040
:100018002604000026040000260400002604000030
:100028002604000026040000260400002604000020
:100038002604000026040000260400002604000010
:100048002604000026040000260400002604000000
:1000580026040000260400002604000026040000f0
:1000680026040000260400002604000026040000e0
:1000780026040000260400002604000026040000d0
:1000880026040000260400002604000026040000c0
:1000980026040000260400002604000026040000b0
:1000a80026040000260400002604000026040000a0
:1000b8002604000026040000260400009401000025
:1000c8002604000026040000260400002604000080
:1000d8002604000026040000260400002604000070
:1000e8002604000026040000260400002604000060
:0800f8002604000026040000ac
:020000040000fa
:10010800260400002604000026040000260400003f
:10011800260400002604000026040000260400002f
:10012800260400002604000026040000260400001f
:10013800260400002604000026040000260400000f
:1001480026040000260400002604000026040000ff
:1001580026040000260400002604000026040000ef
:1001680026040000260400002604000026040000df
:1001780026040000260400002604000026040000cf
:1001880026040000260400002604000026040000bf
:1001980026040000260400002604000026040000af
:1001a800260400002604000026040000260400009f
:1001b8002604000026040000260400009401000024
:1001c800260400002604000026040000260400007f
:1001d800260400002604000026040000260400006f
:1001e800260400002604000026040000260400005f
:0801f8002604000026040000ab
:020000040000fa
:100200004f8120000eff20000e018800000000003a
:1002100000012000200288000c0007002058200068
:100220000100200011000700000020000000e00095
:10023000020032000000020000000000d4010200b1
:10024000000000000040da000000fe004440a90069
:10025000801520000000e0000300320000002000b4
:10026000a00188004440a800000006009101880019
:10027000800078000000eb0015003700e2804000ad
:1002800032a0b4009101ba00e280400032a0b40074
:100290009102ba00e280400032a0b4000002eb00fc
:1002a000472bde00f507b200602ce10004003a00a5
:1002b0000059eb008301e900fdff3e000400370018
:1002c0006128e100010032000082eb000400070019
:1002d0001101ba000200e000e8ff3a000000060049
:1002e0003159ba008301e9000c0032002159ba00eb
:1002f0008301e900080032000400e00003003a0036
:10030000e280400032a0b400f5ff370011d9ba00f6
:100310008301e900faff3a008100e800e180400033
:1003200032a0b400000006003600f800809fbe0036
:10033000829fbe00849fbe00869fbe003400f800ee
:1003400000002000a00188000000fa0088e0a90059
:1003500095408000b4fd2f00848f520005003e00c0
:1003600095408000e45120000482420094408800bf
:10037000020037000002eb009440880094408000a7
:1003800004007800710007000080fa003400f900d2
:100390004f03be004f02be004f01be004f00be0023
:1003a0003600f900004006000000fa0021000700b6
:1003b000060007000002eb00944088009440800093
:1003c0000400780061000700ffff37000000fa001a
:1003d00004102000c4168800740c2000240e88002d
:1003e0000002eb00a40e880084002000640e880048
:1003f00074072000440e880088e0a90090e0a8005f
:1004000004f02300a40e8800040e80000400a10064
:100410000410a000040e88000002eb006440880075
:10042000e451200074408800c1e1a8000080fa0077
:10043000000006000000fa000002eb0054168800dd
:100440000082eb00341688000002eb00441588009f
:100450000080fa00000006000000fa00044080005e
:100460004622de00044278000482fb00840242003f
:10047000a44228000482420014027800344088001c
:10048000144080004622de00044278000482fb0013
:1004900084024200a4422800048242001402780030
:1004a00044408800344080006123b80054408000fc
:1004b0000500200004b8b9000000780006a9b900c2
:1004c00082007800010040000603780004027800f2
:1004d0000432b8000500400080027800412bdd00a6
:1004e0004f22de0004027300cfaade00040278006f
:1004f00034408800444080006123b80054408000ac
:100500000500200004b8b9000000780006a9b90071
:1005100082007800010040000603780004027800a1
:100520000432b8000500400080027800412bdd0055
:100530004f22de0004027300cfaade00040278001e
:10054000444088000080fa00000006000200fa0023
:10055000000f7800240e80000402420054408800fe
:1005600094aa22009e027800848f52001b003e0055
:100570001e0278001440880014408000a5aa2200c2
:100580000482520004408800b3ff070055408000f9
:100590003440800084825200444080000482520033
:1005a0000402d1002440880035408000444080008f
:1005b000848242002440800004824200b40e8800fd
:1005c000454080002440800004824200c40e880020
:1005d00024408000d40e88009a003700445525003e
:1005e0009e027800848f52001c003e0064552d004e
:1005f0001e0242001440880014408000a5aa220078
:10060000048252000440880093ff07005540800098
:1006100034408000848252004440800004825200b2
:100620000402d1002440880035408000244080002e
:1006300004824200b40e88003540800044408000af
:10064000848242002440800004824200c40e88005c
:1006500024408000d40e88007a0037001e02780003
:10066000e00f52001c003500b4aa2a001e0242000e
:100670001440880014408000a5aa22000482520081
:100680000440880074ff070055408000344080001b
:100690008482520044408000048252000402d1004f
:1006a0002440880024408000b40e8800354080003b
:1006b0004440800084824200244080000482420042
:1006c000c40e88004540800024408000048242001f
:1006d000d40e88005b00370094aa2a009e0278009e
:1006e000848f52001c003e00040028001e024200bd
:1006f0001440880014408000a5aa22000482520001
:100700000440880054ff07005540800034408000ba
:100710008482520044408000048252000402d100ce
:100720002440880024408000b40e880035408000ba
:100730002440800004824200c40e880035408000be
:1007400044408000848242002440800004824200b1
:10075000d40e88003b00370044552d009e027800df
:10076000848f52001c003e00645525001e0242008a
:100770001440880014408000a5aa22000482520080
:100780000440880034ff070055408000344080005a
:100790008482520044408000048252000402d1004e
:1007a00024408800454080002440800004824200ac
:1007b000b40e880024408000c40e880035408000bc
:1007c0004440800084824200244080000482420031
:1007d000d40e88001b003700b4aa22001e0242007b
:1007e0001440880014408000a5aa22000482520010
:1007f0000440880018ff0700554080003440800006
:100800008482520044408000048252000402d100dd
:1008100024408800354080004440800084824200ab
:100820002440800004824200b40e880024408000ee
:10083000c40e8800354080002440800004824200bd
:10084000d40e88000080fa00000006000040da00a4
:040850000000fe00a6
:020000040000fa
:1008540000000000c9000000920100005b020000db
:1008640024030000ed030000b60400007f0500002f
:100874004806000011070000d9070000a208000084
:100884006a090000330a0000fb0a0000c40b0000e0
:100894008c0c0000540d00001c0e0000e30e000040
:1008a400ab0f0000721000003a11000001120000aa
:1008b400c81200008f130000551400001c1500001e
:1008c400e2150000a81600006e170000331800009f
:1008d400f9180000be190000821a0000471b00002e
:1008e4000b1c0000cf1c0000931d0000571e0000cd
:1008f4001a1f0000dd1f00009f200000612100007e
:1009040023220000e5220000a62300006724000043
:1009140028250000e8250000a8260000672700001d
:1009240026280000e5280000a3290000612a000011
:100934001f2b0000dc2b0000992c0000552d00001b
:10094400112e0000cc2e0000872f00004130000043
:10095400fb300000b53100006e3200002633000089
:10096400df330000963400004d35000004360000eb
:10097400ba3600006f37000024380000d938000070
:100984008c390000403a0000f23a0000a53b000018
:10099400563c0000073d0000b83d0000683e0000e2
:1009a400173f0000c53f00007340000021410000d4
:1009b400ce4100007a42000025430000d0430000ed
:1009c4007a44000024450000cd450000754600002f
:1009d4001c470000c3470000694800000f4900009d
:1009e400b4490000584a0000fb4a00009d4b000037
:1009f4003f4c0000e04c0000814d0000204e000000
:100a0400bf4e00005d4f0000fb4f000097500000f8
:100a140033510000ce510000685200000253000020
:100a24009b53000032540000c9540000605500007c
:100a3400f55500008a5600001d570000b05700000d
:100a440042580000d358000064590000f3590000d4
:100a5400825a00000f5b00009c5b0000285c0000d1
:100a6400b35c00003e5d0000c75d00004f5e000007
:100a7400d75e00005d5f0000e35f00006860000077
:100a8400eb6000006e610000f06100007162000024
:100a9400f162000070630000ee6300006c6400000b
:100aa400e864000063650000dd6500005666000030
:100ab400cf66000046670000bc6700003268000093
:100ac400a6680000196900008b690000fd69000038
:100ad4006d6a0000dc6a00004a6b0000b76b00001e
:100ae400236c00008e6c0000f86c0000616d000047
:100af400c96d0000306e0000966e0000fb6e0000b1
:020000040000fa
:100b040000080000140000000000000000000000c5
:020000040000fa
:0200000401f009
:04000000f5bf000048
:020000040000fa
:0200000401f009
:04000400ff7f00007a
:020000040000fa
:0200000401f009
:040008007fff000076
:020000040000fa
:0200000401f009
:04001400ffff0000ea
:00000001FF
