S00B00005332542E7372656340
S113000000700020FD660000B7190000CF3000002A
S1130010BB3D00006F450000774500000000000074
S1130020000000000000000000000000B3450000D4
S11300301B4B000000000000AB570000B919000082
S113004065580000575A0000D3670000D3670000CA
S1130050D3670000D3670000D3670000D3670000B4
S1130060D3670000D3670000D3670000D3670000A4
S1130070D3670000D3670000D3670000D367000094
S11300805D5A0000D3670000D3670000D367000007
S1130090D3670000D3670000D3670000D367000074
S11300A0D3670000D3670000935A0000C7670000BD
S11300B0CD670000D3670000D3670000D36700005A
S11300C0D3670000D3670000D3670000D367000044
S11300D0D3670000D3670000D3670000D367000034
S11300E0D3670000D3670000D3670000D367000024
S11300F0D3670000D3670000D3670000D367000014
S1130100D3670000D3670000D3670000D367000003
S1130110D3670000D3670000D3670000D3670000F3
S1130120D3670000D3670000D3670000D3670000E3
S11301302B5B0000D3670000D3670000D367000087
S1130140D3670000D3670000D3670000D3670000C3
S1130150D3670000D3670000D3670000D3670000B3
S1130160D3670000D3670000D3670000D3670000A3
S1130170D3670000D36700003B4900003D490000FD
S11301804549000047490000194B0000D3670000AF
S1130190D3670000D3670000D3670000D367000073
S11301A0D3670000D3670000D3670000D367000063
S11301B0D3670000D3670000D3670000D367000053
S11301C0D3670000D3670000D3670000D367000043
S11303F0D3670000D3670000D3670000FFFFFFFF4F
S1130400FFFFFFFFFFFFFFFFFFFFFFFFFE7FFFFF79
S11304100001020304050607080C101418203040DC
S11304202A010000002901000000340100000042FC
S11304300106000043010200002C010000002D0110
S11304400000002E010000002F0100000030010018
S11304500000000001010101000100000101000091
S1130460000001000000010000127A0000000000FA
S11304700100020101000000000100000000000072
S1130480001800010100000100000000010000004C
S11304900301030101060300010203010106000137
S11304A00100000001000001010000000100000043
S11304B00000000000000000000000000101010134
S11304C001010101000000000A0000001084FF1F68
S11304D0010100004484FF1F8604009300C0024011
S11304E000D0024000E002400000000000000000D4
S11304F0000000001A1B1C0000D004401000000083
S113050000000000000000000000000000000000E7
S113051000D004400F0000000000000000000000B4
S1130520000000000000000000C0044001000000C2
S113053000000003000000000000000000000000B4
S113054000C00440000000000000000300000000A0
S1130550000000000000000000D004400B00000078
S11305600000000000000000000000000000000087
S113057000D004400A000000000000000000000059
S1130580000000000000000000D004400D00000046
S11305900000000000000000000000000000000057
S11305A000D0044005000000000000050000000029
S11305B0000000000000000000D00440040000001F
S11305C00000000500000000000000000000000022
S11305D000A004400700000000000000000000002C
S11305E0000000000000000000A00440060000001D
S11305F000000000000000000000000000000000F7
S113060000D004400E0000000000000000000000C4
S1130610000000000000000000D0044003000000BF
S113062000000000000000000000000000000000C6
S113063000D004400C000000000000000000000096
S1130640000000000000000000C004401100000091
S11306500000000000000000000000000000000096
S113066000C0044010000000000000000000000072
S1130670000000000000000000C004400F00000063
S11306800000000200000000000000000000000064
S113069000D0044009000000000000000000000039
S11306A0000000000000000000C004400E00000034
S11306B00000000000000000000000000000000036
S11306C000C004400D000000000000000000000015
S11306D0000000000000000000D0044008000000FA
S11306E00000000000000000000000000000000006
S11306F000A004400500000000000000000000000D
S1130700000000000000000000A0044004000000FD
S113071000000003000000000000000000000000D2
S113072000B00440030000000000000000000000CE
S1130730000000000000000000B0044002000000BF
S113074000000000000000000000000000000000A5
S113075000C004400700000000000000000000008A
S1130760000000000000000000C00440060000007B
S11307700000000000000000000000000000000075
S113078000C004400500000000000000000000005C
S1130790000000000000000000C004400C00000045
S11307A00000000000000000000000000000000045
S11307B000C004400B000000000000000000000026
S11307C0000000000000000000C004400A00000017
S11307D00000000000000000000000000000000015
S11307E000B0044001000000000000000000000010
S11307F0000000000000000000B004400000000001
S113080000000000000000000000000000000000E4
S113081000C00440090000000000000000000000C7
S1130820000000000000000000C0044008000000B8
S113083000000000000000000000000000000000B4
S113084000B004401100000000000000000000009F
S1130850000000000000000000B004401000000090
S11308600000000000000000000000000000000084
S113087000B004400F000000000000000000000071
S1130880000000000000000000B004400E00000062
S11308900000000000000000000000000000000054
S11308A000A004400300000000000000000000005D
S11308B0000000000000000000A00440020000004E
S11308C00000000300000000000000000000000021
S11308D000B004400D000000000000000000000013
S11308E0000000000000000000B004400C00000004
S11308F000000000000000000000000000000000F4
S113090000B004400B0000000000000000000000E4
S1130910000000000000000000B004400A000000D5
S113092000000000000000000000000000000000C3
S113093000A00440010000000000000000000000CE
S1130940000000000000000000A0044000000000BF
S113095000000003000A0000000000000000000086
S113096000B0044009000000000000000000000086
S1130970000000000000000000B004400800000077
S11309800000000000000000000000000000000063
S11309900090044007000000000000000000000078
S11309A00000000000000000009004400600000069
S11309B00000000000000000000000000000000033
S11309C000D0044007000000000000000000000008
S11309D0000000000000000000900440110000002E
S11309E00000000000000000000000000000000003
S11309F000A00440110000000000000300000000FB
S1130A00000000000000000000A0044010000000EE
S1130A1000000003000000000000000000000000CF
S1130A2000A004400F0000000000000300000000CC
S1130A30000000000000000000A004400E000000C0
S1130A40000000030000000000000000000000009F
S1130A5000A004400D0000000000000000000000A1
S1130A60000000000000000000A004400C00000092
S1130A700000000000000000000000000000000072
S1130A8000C004400400000000000000000000005A
S1130A90000000000000000000C00440030000004B
S1130AA0000000030000000000000000000000003F
S1130AB000C0044002000000000000030000000029
S1130AC0000000000000000000900440030000004B
S1130AD00000000000000000000000000000000012
S1130AE0009004400200000000000000000000002C
S1130AF0000000000000000000A004400B00000003
S1130B00000000010000000040F00F400100000060
S1130B1000A004400A0000000000000100000000E2
S1130B2040F00F400100000000A004400900000054
S1130B30000000010000000040F00F400100000030
S1130B4000A00440080000000000000100000000B4
S1130B5040F00F400100000000900440010000003C
S1130B600000000000000000000000000000000081
S1130B70009004400000000000000000000000009D
S1130B80000000000000000000B004400700000066
S1130B900000000000000000000000000000000051
S1130BA000B0044006000000000000000000000047
S1130BB0000000000000000000900440100000004D
S1130BC00000000000000000000000000000000021
S1130BD0009004400F00000000000000000000002E
S1130BE0000000000000000000D0044006000000E7
S1130BF000000000000000000000000000000000F1
S1130C0000D00440020000000000000000000000CA
S1130C100000000000000000009004400E000000EE
S1130C2000000000000000000000000000000000C0
S1130C30009004400D0000000000000000000000CF
S1130C400000000000000000009004400C000000C0
S1130C500000000000000000000000000000000090
S1130C60009004400B0000000000000000000000A1
S1130C700000000000000000009004400A00000092
S1130C800000010700000000000000000000000058
S1130C9000D0044001000000000000020000000039
S1130CA0000000000000000000D00440000000002C
S1130CB00000000000000000000000000000000030
S1130CC000B004400500000002000007000000001E
S1130CD0000000000000000000B004400400000018
S1130CE001000007000000000000000000000000F8
S1130CF0009004400500000002010007000000000D
S1130D000000000000000000009004400400000007
S1130D1002000007000000000000000000000000C6
S1130D2000900440090000000000000000000000E2
S1130D3000000000000000000090044008000000D3
S1130D40000000000000000000000000000000009F
S1130D500300030003000300030003000300030077
S1130D600300030003000300030003000300030067
S1130D70000003000300030003000300030003005A
S1130D800300030003000300030003000300030047
S1130D90000101000002010103000102030003003D
S1130DA00300010303000300030003000300030026
S1130DB0000301040004010500050106030003000B
S1130DC00300030003000300030003000300030007
S1130DD002000300030003000006010703000108EA
S1130DE003000300030003000300030003000300E7
S1130DF002000300030003000007010003000100D8
S1130E0003000300030003000300030003000300C6
S1130E1000080109030003000300030003000300AA
S1130E2003000300030003000300030003000300A6
S1130E300300010003000300030003000300030098
S1130E400300030003000300030003000300030086
S1130E500200010A0200010B030003000300030067
S1130E600300030003000300030003000300030066
S1130E700300030003000300030003000300030056
S1130E800300030003000300030003000300030046
S1130E90000000000000000000000000000000004E
S1130EA0000000000000000000000000000000003E
S1130EB0000000000000000000000000000000002E
S1130EC0000000000000000000000000000000001E
S1130ED0000000000000000000000000000000000E
S1130EE000000000000000000000000000000000FE
S1130EF000000000000000000000000000000000EE
S1130F0000000000000000000000000000000000DD
S1130F1000000000000000000000000000000000CD
S1130F2000000000000000000000000000000000BD
S1130F3000000000000000000000000000000000AD
S1130F40000000000000000000000000000000009D
S1130F50975200009B5200009F520000A3520000D1
S1130F60B1520000BF520000C3520000F35200000F
S1130F700000000000000000F7520000FB520000D7
S1130F80FF520000035300000753000025530000E4
S1130F9043530000475300005D53000073530000A7
S1130FA09F530000CB53000000000000000000002D
S1130FB0000000000000000000000000000000002D
S1130FC0000000000000000000000000000000001D
S1130FD00000000000000000FF000000000000000E
S1130FE0F0B50446DFF8C055012087B02872696067
S1130FF0A0792870E0796870142000F0E2FC0420E5
S11310008DF8000001A800F0D1FA060003D101A870
S113101000F0E8FB06463EB900226946012000F0D4
S11310209EFC08B140F601061EB9204600F043F8C4
S113103006461EB9A01D00F097F8064626B9607A48
S1131040002100F013F9064626B904F10A0000F065
S11310503BF90646CEB90020019001AF207B8DF804
S113106004000223142078700DF106024FF47A7004
S1131070009001A9686800F0BFFD9DF807107A7818
S113108091420CBF002840F6010626B904F10D0078
S113109000F03DF9064626B904F1280000F062FA92
S11310A006461EB9207A00F0BCF8064600202872D5
S11310B007B03046F0BD2DE9F043DFF81C6783B07C
S11310C007463088DFF81487DFF8DC54ADF80400F5
S11310D001ACB8F80000ADF806000223387879783E
S11310E00843B97808438DF804000DF10602202066
S11310F0607001A94FF47A7000904FF0000968689D
S113110000F07AFD9DF807106278914218BF40F60E
S1131110010010BB3188ADF80410F81CB8F80010B9
S1131120ADF8061001AE0178427880781143084387
S11311308DF804000223382070700DF106024FF47C
S11311407A70009001A9686800F056FD9DF80710B8
S11311507278914218BF40F6010008B140F60109C7
S1131160484603B0BDE8F0832DE9F041DFF8386468
S113117086B004463078217801250027884202BFD2
S1131180707861788842B84601D1307A28B38DF8F6
S113119000706A460021012000F0E1FB0028A84607
S11311A039D19DF8000000F00705042D15D0042066
S11311B08DF8000001A800F0F9F9070003D101A897
S11311C000F010FB07463FB900226946012000F0F9
S11311D0C6FB08B140F601076FB92078617808436F
S11311E08DF8000000226946002000F0B8FBB8F139
S11311F0000F0FD070B987B9042D0ED0284600F027
S113120010F80746207830706078707006B0384661
S1131210BDE8F08108B140F60107384606B0BDE8E4
S1131220F08110B586B000248DF80000012818BFA5
S1131230042806D007280ED040F60204204606B043
S113124010BD01A800F0B2F9040003D101A800F018
S1131250C9FA04463CB900226946012000F07FFB2C
S113126008B140F60104204606B010BD30B5002494
S113127083B000281CBF042840F6020421D131B1F8
S1131280097809B1042902D201F003010843019449
S11312908DF8040001AD0420687002234FF47A70C5
S11312A000900DF10602DFF80003406801A900F088
S11312B0A3FC9DF807106A7891420CBF002840F601
S11312C00104204603B030BD30B583B0002401943E
S11312D001AD0178407808438DF80400022308200A
S11312E068700DF106024FF47A70009001A9DFF8DE
S11312F0B802406800F080FC9DF807106A789142BB
S11313000CBF002840F60104204603B030BD2DE98F
S1131310F04F83B004460020ADF8080001AFDFF8B9
S1131320B854DFF8B8642888DFF87C82ADF804008C
S113133002233088ADF806000DF1060220786178AA
S11313400843A1780843E17808438DF8040001A913
S1131350402078704FF47A700090D8F8040000F0C0
S11313604BFC9DF807107A78914218BF40F60100B3
S113137008BB2988ADF80410201D3188ADF806108B
S11313800223017842788078114308438DF80400E1
S11313900DF106024620787001A94FF47A7000908E
S11313A0D8F8040000F028FC9DF807107A789142E0
S11313B018BF40F60100E0B92888ADF80400022304
S11313C03088ADF806000DF10602E0798DF80400CE
S11313D001A94C2078704FF47A700090D8F804007A
S11313E000F00AFC9DF807107A78914218BF40F685
S11313F00100002840F0AC80002704F108090DF139
S1131400040A40F6010B01E0042F4FD229883288E8
S1131410ADF8041007F127000021ADF80620B9F15A
S1131420000F06BF0121002299F8002041EA400084
S11314308DF805008DF804204FF47A700090022393
S1131440D8F804000DF1060201A900F0D5FB9DF8BF
S113145007109DF80520914218BF584630BB2988D3
S11314603388ADF8041007F12B0009F104020021C0
S1131470ADF80630002A0CBF0121127841EA400081
S11314808DF805008DF804204FF47A700090022343
S1131490D8F804000DF1060201A900F0ADFB9DF897
S11314A007109DF80520914218BF584630BB298883
S11314B03388ADF8041007F1680009F10B0200212C
S11314C0ADF80630002A0CBF0121127841EA400031
S11314D08AF801008DF804204FF47A7000900223FA
S11314E0D8F804000DF1060201A900F085FB9DF86F
S11314F007109AF80120914218BF58467F1C082F04
S113150009F10109FFF480AF10BB2988ADF804107C
S113151004F110003188ADF8061001AC017842786E
S11315208078114308438DF8040002235E20607024
S11315300DF106024FF47A70009001A9D8F8040066
S113154000F05AFB9DF807106278914218BF584684
S113155018B140F60100ADF80800BDF9080003B069
S1131560BDE8F08F30B583B00024019401AD01785B
S1131570407808438DF804000223982068700DF128
S113158006024FF47A70009001A90748406800F001
S113159033FB9DF807106A7891420CBF002840F68F
S11315A00104204603B030BD580100202DE9F04F5E
S11315B0044683B0002504F10B0625716571A571FD
S11315C0E57125726572A572357004F10F0B2573F0
S11315D06573A5738BF8005025740DF106070FF29F
S11315E0D0380FF2D039B8F80000DFF8F4A1ADF824
S11315F006008DF806500223B9F80000ADF8040087
S113160001AAC12078700DF106014FF47A700090A0
S1131610DAF8040000F0F0FA9DF805107A789142A7
S113162018BF40F601009DF8041058B901F00802F3
S1131630227001F00402627001F0020201F0010163
S1131640A270E170E17801292DD1B8F80000ADF85D
S113165006008DF806500223B9F80000ADF8040026
S113166001AAC32078700DF106014FF47A7000903E
S1131670DAF8040000F0C0FA9DF805107A78914277
S113168018BF40F601009DF8041060B9221D01F056
S11316901003137001F00403537001F0020301F00E
S11316A001019370D170A17802292BD1B8F8000000
S11316B0ADF806008DF806500223B9F80000ADF825
S11316C0040001AAC52078700DF106014FF47A7068
S11316D00090DAF8040000F08FFA9DF805107A788B
S11316E0914218BF40F601009DF8041050B904F16E
S11316F0080201F00403137001F0020301F0010178
S113170053709170617804292CD1B8F80000ADF8B9
S113171006008DF806500223B9F80000ADF8040065
S113172001AAC72078700DF106014FF47A70009079
S1131730DAF8040000F060FA9DF805107A78914216
S113174018BF40F601009DF8041058B901F02002BA
S1131750327001F01002727001F0020201F0010116
S1131760B270F170217808292ED1B8F80000ADF8D4
S113177006000DF10604B9F80000ADF804008DF878
S11317800650C920607002234FF47A70009001AAB9
S1131790DAF804000DF1060100F02EFA9DF80510A8
S11317A06278914218BF40F601009DF8041058B9C0
S11317B001F002008BF8000001F001008BF8010039
S11317C003B02846BDE8F08F08B140F6010528466D
S11317D003B0BDE8F08F0000B0190000B419000098
S11317E05801002070B5054684B0A878002400286C
S11317F004BFE978002906D16978002902BF297855
S11318000029291D0ED0E97808436978084329780E
S113181008438DF80400002201A9602000F09FF81D
S1131820291DC8B948780A78002808BF002A07D1BA
S11318308B78002B02BFCB78002B05F108010ED06A
S113184010438A78C978104308438DF804000022B5
S113185001A9612000F083F805F10801A8B988788E
S1131860002804BF0A78002A04D14A7812B905F185
S11318700B010DE00A784978104308438DF8040001
S1131880002201A9622000F06AF805F10B01A0BB57
S11318904878002804BF8A78002A07D1CA78002A29
S11318A002BF0A78002A05F10F0129D08A78104373
S11318B0CA780978ADF80640104308438DF804004F
S11318C00DF106069DF804008DF80600ADF80840F9
S11318D0C620707002234FF47A70009002AADFF8D9
S11318E0CC0040680DF1060100F086F99DF809105E
S11318F07278914218BF40F6010005F10F0140BB18
S11319004878002804BF0A78002A25D00978ADF861
S1131910064008438DF804000DF106059DF8040007
S11319208DF80600ADF80840C820687002234FF413
S11319307A70009002AADFF8740040680DF1060185
S113194000F05AF99DF809106A78914218BF40F6E0
S1131950010008B140F60104204604B070BD30B562
S113196083B001AD14460022019200290CBF01226C
S1131970097842EA400068708DF804104FF47A70D8
S113198000900223094840680DF1060201A900F005
S113199033F99DF807106A78914218BF40F60100A8
S11319A014B19DF80610217003B030BD5801002019
S11319B0000000000000FEE731480168491C016096
S11319C0704710B582B0044600200090694600F0CC
S11319D0A5FC00992B484FF47A72B1FBF2F109028D
S11319E0090A416003210160254801680268521A0E
S11319F0A2420FD20268521AA2423EBF0268521A91
S1131A00A2423EBF0268521AA2423EBF0268521A64
S1131A10A242EFD302B010BD70B582B004460020DC
S1131A200D460090694600F079FC009915484FF482
S1131A307A72B1FBF2F10902090A4160002603211E
S1131A40016015F1010F0E4808BF4FF0FF35016822
S1131A50227852B90268521A15F1010FF8D0954252
S1131A60F6D20326304602B070BD00F0D7FE2078CF
S1131A70401E207000F0C8FE304602B070BD000069
S1131A804C01002010E000E030B581B0044600F0C5
S1131A90C5FE20780025FF281DBF2078401C20703B
S1131AA0012500F0B1FE284601B030BD30B581B04B
S1131AB004460D4600F0B2FE257000F0A5FE00209D
S1131AC001B030BD002070472DE9F043DFF8CC446D
S1131AD087B0804654F82870DFF8C454894645F826
S1131AE028901646384600F0A3FE0121384600F03F
S1131AF0B1FE012300220021384600F0F8FE002246
S1131B0009F12101384600F0B1FE3089083840F669
S1131B10F97155F8285054F82840884268D2204674
S1131B2000F08CFE002863D1318929800723F068F6
S1131B30A860B0792871B07C85F820000020F27C80
S1131B4085F824202873687119421ABFC808401CFC
S1131B50C80868802AB969880322114201D0032980
S1131B6046D2307D85F82200707D85F82300727995
S1131B703179204600F0A8FEF26831686B462046B1
S1131B8000F0CCFE216941F00101216180B301A87C
S1131B900021002200230EC006C02888019001A95C
S1131BA0B0798DF80C00B07C8DF80E0030798DF88A
S1131BB00F0000980490307C8DF81400707C8DF830
S1131BC01500204600F0E5FE002109F12500FFF78D
S1131BD06DFF0446DFF8CC0318F9000000F00AFE9C
S1131BE0386940F00100386107B02046BDE8F08351
S1131BF0012007B0BDE8F083F0B50446DFF8A00388
S1131C0081B050F82470DFF8940350F82450C3B323
S1131C1001207871204600F037F8060017D0002024
S1131C203873A86940084000A861A86920F0020040
S1131C30A861204601F067F8A86920F48060A861D3
S1131C400A21284600F028FE304601B0F0BD06996E
S1131C5007F12500FFF7E0FE032807D10020787183
S1131C60204600F000F9032001B0F0BD204601F049
S1131C704AF8A86920F48060A8610A21284600F087
S1131C800BFE002001B0F0BD2DE9F04F8046C448A2
S1131C9085B050F82840C14850F82860C248D0F8B0
S1131CA000A07069C0010D4691469B4648BF0220C2
S1131CB000F1D68060889BFBF0F100FB11B018B1F5
S1131CC0012005B0BDE8F08F207918B1306E40F4E2
S1131CD0801030664FF47C51B06D20F47F00B06505
S1131CE0B06D20F47F0040F00200B065002084F85D
S1131CF02600304600F0D0FDB06940F40060B061C9
S1131D00B06940F48050B06194F8240001282BD1CC
S1131D102561C4F814900020A083E083A4F818B0CF
S1131D20207910B1208B401C2083012201213046F0
S1131D3000F0ABFD01220121304600F0A6FD012098
S1131D402073606928B96083B06940F00100B06114
S1131D5085E0B06940F00200B061A4F81AB0B0693F
S1131D6040F00100B0617AE0B9F1000F06BF002035
S1131D706083A4F81AB06088022802D0042802D034
S1131D8003E0012702E0022700E000270120B84019
S1131D9002900190009706F1640394F823002A4608
S1131DA0012101F074F80298BBFBF0F003900246A5
S1131DB094F823100FF2151B504601F067F994F8BC
S1131DC023000AEB401041F21C05295A41F0080196
S1131DD0295294F8230001F0B5F8B9F1000F32D07C
S1131DE00298019000974B4694F8220006F1740281
S1131DF0002101F04CF8039A94F82210504601F0A7
S1131E0045F994F822004246594601F031F8207908
S1131E1030B194F823000FF2B901424601F028F8DA
S1131E2094F822000AEB4010295A41F00801295283
S1131E3094F8220001F086F801202073F06940F044
S1131E400200F06107E094F823004246594601F08D
S1131E500FF801202073F06940F00100F0610020C8
S1131E6005B0BDE8F08F30B54D4981B051F8204040
S1131E704A4951F820500021217394F8241041B9A3
S1131E80E96921F00201E961E96949084900E96168
S1131E9007E0A96921F00201A961A969490849007B
S1131EA0A96100F030FFA86920F48060A8610A21CC
S1131EB0284600F0F1FC607928B104F12500FFF711
S1131EC0E3FD0020607101B030BD0000CBE70000ED
S1131ED0324951F82000016E21F4801101667047E7
S1131EE0F0B504462E4881B050F824502B4850F8E1
S1131EF024702E8B688B7969090511D5012085F82A
S1131F0026002046FFF7AFFF01220121384600F0EA
S1131F10BCFC01220121384600F0B7FC0B2113E080
S1131F207969C90416D5022085F826002046FFF7F2
S1131F309AFF01220121384600F0A7FC0122012169
S1131F40384600F0A2FC0C21384601B0BDE8F04050
S1131F5000F0A2BC7969890703D510B1204600F0CE
S1131F6019FE7869C00703D516B1204600F054FD68
S1131F70288B698B80B9B86940084000B861B8699A
S1131F8040F48060B86139B97869400504D52046C9
S1131F9001B0BDE8F04066E701B0F0BDCC84FF1F9E
S1131FA0D884FF1FE484FF1FAC67000030B581B004
S1131FB0044600F013F805000DD104F17401DFF8B4
S1131FC0140801F085F804F14C0000F077F804F1EE
S1131FD07C0000F0BAF8284601B030BD70B5044664
S1131FE00026002C82B066D0DFF8EC5701AA00214D
S1131FF0284601F0D7F99DF80700032817D0284692
S113200001F0C5FB18B900F0E2FA06000FD1032075
S11320108DF8030000208DF8020001208DF80100E6
S113202003208DF80000684600F02CFA06461EB91D
S1132030204600F0F0FA0646002E3CD194F8380011
S113204018B1616B284601F07CFC94F83D00C0B1E6
S113205094F83C00401E05280CD8DFE800F0030586
S1132060070B0B09012006E0022004E0032002E034
S1132070062000E00020296A21F0706141EA006036
S1132080286294F84B00B0B104F13E0201212846C5
S113209001F0FAF8060006D104F1420202212846B2
S11320A001F0F2F8064636B904F146020321284647
S11320B001F0EAF80646304602B070BD10B5044699
S11320C0207820B12146DFF8140701F0B2FC207F0C
S11320D028B3DFF80807016C627F490842EA41012E
S11320E00164016CA27F21F0020141EA4201016412
S11320F0016CE27F21F0040141EA82010164016C78
S113210094F8202021F0080141EAC2010164016C25
S113211094F8212021F0100141EA02110164207B8E
S113212038B1DFF8BC062169016061694160A169C9
S1132130816094F8220038B104F12201BDE8104016
S1132140DFF8980601F0E4BC10BD0178B1B1DFF806
S113215094160A78437802F07F0283F0010342EA7E
S1132160C3120A7090F90200002848BF20308A7810
S113217002F0E00200F01F00104388707047000076
S113218030B5024600250020153A0E2A81B00C46CF
S11321906BD8DFE802F0080A0C0E1C2126303A4402
S11321A04E53585D6200002104E0012102E0022147
S11321B000E00321DFF8240601F04EFC0146002074
S11321C0032953D2DFF8180650F821004EE0DFF857
S11321D00C0600F087F949E0DFF8000600F0DEF9AC
S11321E044E0DFF800160978C9093FD1DFF8EC05AF
S11321F001F05CFC3AE0DFF8EC150978C90935D147
S1132200DFF8D80501F07CFC30E0DFF8D815097858
S1132210C9092BD1DFF8C40501F069FC26E0DFF819
S1132220C4150978C90921D1DFF8B00501F05CFCB7
S11322301CE0DFF8A815096CC90612E0DFF89C154C
S1132240096C09070DE0DFF89415096C490708E0EB
S1132250DFF88815096C890703E0DFF88015096C3D
S1132260C90703D44FF4807500E0042504B120604D
S1132270284601B030BDF0B507460C4600260025BF
S11322803946252981B008DB332918BF392904D000
S11322903B291CBF40294D2901D1042639E0DFF830
S11322A04825DFF8300532F8112050F822004000AC
S11322B02DD53329DFF8200504DA012100F08AFF47
S11322C038BB24E0392904DA002100F083FF00BB85
S11322D01DE03B2904DA022100F07CFFC8B916E0B6
S11322E040290ADA002100F075FF80B10021384648
S11322F000F072F805000CD109E0012100F06AFF3A
S113230028B10121384600F067F8050001D14FF4E7
S1132310807604B12560304601B0F0BD30B50A289E
S113232081B00C4643DA00250021092839D8DFE8BA
S113233000F032312F29231D17110B05DFF8980403
S113234000F010F901462DE0DFF88C0401F0FCFAEE
S1132350014627E0DFF8800401F0B8FA014621E0E5
S1132360DFF8740401F0CAF801461BE0DFF86804E2
S113237001F00DFA014615E0DFF85C0401F03DF9C7
S113238001460FE0DFF8540400F0ACF8014609E020
S1132390022100E00121DFF8400400F01BFF0146A8
S11323A000E00425A4B12160284601B030BD2428F2
S11323B005DAFFF7E5FE0546284601B030BD4E2894
S11323C005DAFFF758FF0546284601B030BD04255D
S11323D0284601B030BD000070B5DFF80C34024669
S11323E033F81220DFF8EC3353F8224053F822502C
S11323F005F0070500206D1EE408062D04F0010415
S113240013D8DFE805F00406080A0C0E10000125B5
S11324100CE002250AE0032508E0042506E0052572
S113242004E0062502E0072500E00025A54228D3A4
S113243053F82260760024D553F82220120E02F0BD
S11324400702521E052A17D8DFE802F003080D160A
S11324501612DFF8840301F05AF80DE0DFF8780370
S113246001F0D9F808E0DFF8700301F0A0F903E007
S1132470DFF8640301F049FA691CB0FBF1F0611C58
S1132480484370BDF0B50446DFF8600381B00068CE
S1132490C0B2012808D0042804D080280CBF03212E
S11324A0042102E0022100E00121DFF82C5322463E
S11324B0284600F0E9FE060010D164276A46002190
S11324C0284600F06FFF7F1E07D09DF80300E178D7
S11324D08842F3D1304601B0F0BD0326304601B046
S11324E0F0BD000000B581B0694601F05DFA9DF8C9
S11324F00100002833D09DF80200072829D8DFE81E
S113250000F004080D12171C2024B34800F02AF828
S113251020E00121B04800F0FAFF1BE00121AE48A1
S113252001F079F816E00121AB4801F040F911E01F
S11325300121A94801F0E9F90CE0A84801F0D4FA16
S113254008E0A64801F0B2FA04E0A44800F026F836
S113255000E000209DF80310491CB0FBF1F001B02D
S113256000BD0000006A000E00F00F00401E0528A8
S113257010D8DFE800F00306090F0F0C964800F0AE
S1132580BDBF954801F039B8934801F000B99248AD
S113259001F09CB90221904800F01CBE00690009BA
S11325A000F00300012804D00DD3032807D003D37F
S11325B009E08A4801F09BBA874801F0C5B90021B7
S11325C0854801F0F4B80021834800F0A0BF70B53D
S11325D0040084B003D1684601F03DF86C467E4D9A
S11325E0284601F0BFF80646E07A88B186B921464C
S11325F0284601F041F806000AD10A2401E034B16A
S1132600641E284601F0C3F80028F8D004B9032654
S1132610304604B070BDF0B504008BB004D101A8FD
S113262000F095FF01AF00E027466B4D284600F00F
S1132630D2FF0646F87888B186B93946284600F0B4
S113264092FF06000AD11A2701E037B17F1E2846FF
S113265000F0D3FF0028F8D007B90326002E3FD19D
S113266014F1140703D106A800F0CFFE06AF2846E4
S113267000F02CFF0646787C88B186B93946284696
S113268000F0D1FE06000AD1594F01E037B17F1E98
S1132690284600F033FF0028F8D007B90326FEB916
S11326A014F1280703D103A801F0A4F803AF2846C6
S11326B001F0F7F80646F87A90B18EB93946284603
S11326C001F0A4F806000BD14FF47A7701E037B19A
S11326D07F1E284601F0FAF80028F8D007B903262F
S11326E042480068C0B201280AD0042805D08028D6
S11326F00CBF04F14605002504E004F1420501E0A5
S113270004F13E05002E62D1E87803284BD194F8F9
S11327103300012668B106208DF803008DF80160AE
S113272002208DF802008DF800606846FFF7AAFECB
S1132730064694F8250080B1012E0ED101208DF8B3
S1132740030000208DF8020001208DF801008DF8AF
S113275000006846FFF796FE0646E07868B1012E51
S11327600BD102208DF8030000208DF80200ADF893
S113277000006846FFF786FE064646BBE01DFFF7ED
S113278026FF060023D1E8788DF80300A8788DF899
S1132790020068788DF8010028788DF800006846FA
S11327A0FFF770FE12E08DF80300A8788DF80200A0
S11327B068788DF8010028788DF800006846FFF7E6
S11327C061FE060003D1E01DFFF701FF0646304617
S11327D00BB0F0BD005006400040064000800440AD
S11327E0F000002002D007403431000014E007401C
S11327F088E73000012100F01F0291400A4A400995
S113280042F820107047000008480168012904DBE1
S1132810491E0129016000DA62B67047034872B6A6
S11328200168491C0160704700E100E04801002094
S11328300221016100210161704700004169C1F377
S1132840006109B10220704701694908490001612A
S1132850002070470269D20701D501207047426AFF
S1132860520841EA420141620020704729B1D0F880
S113287004C0012303FA0CF30B702AB10121406850
S1132880000A01FA00F0107070470369520242EA2C
S11328900121194301617047182918BF012900D08B
S11328A009B901207047B1F57C5F05D1416941F454
S11328B07C514161002070474269012303FA01F110
S11328C011434161002070470369DB0701D50120F2
S11328D070470831436A4FF0010C0CFA01FC23EAFB
S11328E00C0302FA01F11943416200207047D0F849
S11328F010C05FEACC7C01D501207047D0F824C019
S11329002CF0706C4CEA016141EA826183F00102AF
S113291041EAC26141620020704700002DE9F04F96
S11329200446606AC00702D52069C00702D50020AA
S1132930BDE8F08F00204FF0FF380726FF278446BC
S11329400FF2980EDEF800905FF0000505F1020A20
S11329500AFB09FAB2FBFAFA514507D3A1EB0A0BB9
S1132960C34503D2D84666462F4650466D1CFF2DFC
S1132970ECD90CF1010CBCF1080F0EF1040EE1D3FB
S1132980216C090AFAB242EA012121641E60BDE801
S1132990F08F0B7C4A7C9B0743EAC272CB6842EA05
S11329A0C362CB7A42EA03628B7A42EAC3524B7A1D
S11329B042EA83520B7A42EA4352CB7942EA035207
S11329C08B7942EAC3424B7942EA83420B79096824
S11329D042EA0342491E11430166704701000000A8
S11329E002000000040000000800000010000000C5
S11329F0200000004000000080000000032809D2ED
S1132A00CC4951F82010496AC90748BFFFF768BA92
S1132A1001F025B970470000F0B5C64A02EB800109
S1132A20C96852F8200091F82120C36DD21AD2B29D
S1132A3000E0521ED3B2002B00F0AA800B794BB1F8
S1132A400B8B012B06D1026E22F480120266002049
S1132A500883F0BD4E888B8B3546EB1A052BBDBF22
S1132A608B8BF31A9BB2042391F820700024002F5F
S1132A7049D1052E47D38F8B761EA6EB070C002673
S1132A800F69012BC0F230801FFA8CFC761C1CF8F5
S1132A9007E0F6B29E420EEB0424ACF1010C23DAFB
S1132AA01FFA8CFC761C1CF807E0F6B29E420EEB73
S1132AB00424ACF1010C17DA1FFA8CFC761C1CF808
S1132AC007E0F6B29E420EEB0424ACF1010C0BDAE3
S1132AD01FFA8CFC761C1CF807E0F6B29E420EEB43
S1132AE00424ACF1010CCFDB8E8B13FA86F696FB33
S1132AF0F5F705FB17668E838E8B002E40D10E6989
S1132B00AD190D613CE00026012B30DB0D6915F891
S1132B10017B0D614FEAC60C07FA0CF7761C3C19D1
S1132B20F6B29E4223DA15F8017B0D614FEAC60C1A
S1132B3007FA0CF7761C3C19F6B29E4217DA15F820
S1132B40017B0D614FEAC60C07FA0CF7761C3C19A1
S1132B50F6B29E420BDA15F8017B0D614FEAC60C02
S1132B6007FA0CF7761C3C19F6B29E42CEDB8D8B2D
S1132B704E8813FA85F595FBF6F706FB17558D83FA
S1132B8044660C8BE31A0B830B8B002B7FF451AF41
S1132B90F0BD0000F0B4674A02EB800152F8200057
S1132BA0C968C26D1202120E00E0521ED3B2002B8D
S1132BB000F0A780446F4D88CB8BEB1A052BBDBF6B
S1132BC0CB8BEB1A9BB2042391F82070002F48D1D1
S1132BD0052D46DBCE8BAD1B6E1E5D1E2DB2002D6A
S1132BE02FD4EF0024FA07FC4F69B6B26D1E06F825
S1132BF007C0761E2DB2002D23D4EF0024FA07FC63
S1132C004F69B6B26D1E06F807C0761E2DB2002DB0
S1132C1017D4EF0024FA07FC4F69B6B26D1E06F80C
S1132C2007C0761E2DB2002D0BD4EF0024FA07FC4A
S1132C304F69B6B26D1E06F807C0761E2DB2002D80
S1132C40CFD5CC8B4D8813FA84F494FBF5F605FBB1
S1132C501644CC83CC8B002C4CD14C692C194C6180
S1132C6048E000251EB2012E3BDB13F003070CD015
S1132C70D1F814C0EE0024FA06F68CF800606D1C3E
S1132C804E69761C7F1E4E61F2D19E0829D0EF005A
S1132C9024FA07FC4F6987F800C06D1C4F697F1C3C
S1132CA04F61EF0024FA07FC4F6987F800C06D1CE0
S1132CB04F697F1C4F61EF0024FA07FC4F6987F8C6
S1132CC000C06D1C4F697F1C4F61EF0024FA07FCA4
S1132CD04F6987F800C06D1C4F697F1C761E4F61D9
S1132CE0D5D1CC8B4D8813FA84F494FBF5F605FB0F
S1132CF01644CC834C8BE31A4B834B8B002B7FF411
S1132D0054AFF0BC704710B50A4951F82040A0698F
S1132D1020F40060A0610B21A06920F48050A06120
S1132D202046FFF7B9FD2046BDE810400C21FFF70F
S1132D30B3BD0000CC84FF1F2DE9F0411746DFF836
S1132D4054220C4610601E46402101F001F8DFF8C1
S1132D5048020568284600F027F928682178890088
S1132D6020F0040001F00401084328604FF000083B
S1132D702868617820F0100081F0010140EA011018
S1132D8028601025DFF81402DFF8144210F9080057
S1132D90FFF730FD14F9010BFFF72CFD6D1EF9D17F
S1132DA0DFF80002006800F0D6FF002F18BF002EE5
S1132DB00BD0069C4CB13168386800F009F800B1BA
S1132DC080463F1D361D641EF5D14046BDE8F081A6
S1132DD02DE9F0478246DFF8C001DFF8B851D0F89A
S1132DE00090DFF8C001076828680C4694F8028058
S1132DF0667840F826A01021504600F0A9FF8AF812
S1132E00006001223146484600F0F3F8F05D00F01E
S1132E107F00F05508F03F01F05D00F0C00008436A
S1132E20F0553146F05D40F08000F055484600F022
S1132E30EAF8D9F8000040070FD42078FF280CD016
S1132E40617881F00301494400F00F0091F80021FA
S1132E5002F0F002104381F800012968A06862784A
S1132E6051F82210626888604A600020BDE8F0874B
S1132E70DFF820311B6853F8200041608260002095
S1132E807047DFF8141109680877C87770472DE98F
S1132E90F24F0546DFF8000182B006689DF8301055
S1132EA0DDF83480012000FA01F4E0B2B8FBF0F15F
S1132EB092469B46002700FB118020B1012738462B
S1132EC003B0BDE8F08FA9464946304600F09BF8B0
S1132ED006EB451000F580550023C5F800A0C5F8A1
S1132EE010B000229DF83000019049469DF8300052
S1132EF00090304600F098F89DF8080030B10228A0
S1132F0007D03EBF64B2AC80AF8205E0A88064B253
S1132F1001E064B2AC80AC8242464946304600F0DF
S1132F2095F801224946304600F0B0F806EB491006
S1132F3041F21C010A5A42F002020A52384603B016
S1132F40BDE8F08F00B50146134881B00068012246
S1132F5000F054F8002001B000BD0F4A126802EBE3
S1132F60401000F580500A6802608A888280CA880E
S1132F70C2808A688260CA68C2600A6902618A8AF9
S1132F808282CA8AC2828A6982618A8B8283C98B5D
S1132F90C183704728010020AC670000C4670000AB
S1132FA0B4670000B06700000168374A114001604F
S1132FB000F58050001D08215FF0000240F8042C49
S1132FC00280428042608260C26002824282426128
S1132FD002834283C2610284428442628262C26288
S1132FE0028642864263028742874030491EE5D109
S1132FF07047002A14BF417601767047002A14BF37
S1133000C1768176704700EB411000F580500021B5
S113301001608180C1808160C16001618182C1825F
S113302081618183C183704781B000EB4110DDF879
S113303004C04FEA0C2C4CEAC22242EAC303029AAF
S113304041F206011A430A5201B0704700EB4111E4
S1133050006841F20803C0F3C01098B15858C00F7B
S113306002BF5858C0F38070002803D19000800834
S11330705850704758589205800A920D42EA8020B1
S1133080585070475A50704739FFFCFF00EB41100D
S113309000F5805016300189C90B01890BD0D20587
S11330A0D20D01F47E4111430181018801F47E4176
S11330B01143018070475204520C01F40041114342
S11330C00181018801F40041114301807047FEE74A
S11330D001B97047F0B44C68002C1FBF00220FF2F6
S11330E054030D68002D22D0257833F8155050F87C
S11330F0256026F0804640F82560521CA678E778C3
S11331003606FF0006F0E06607F008073E4327791D
S1133110257833F8155007F007073E43677846EAE9
S1133120877640F82560641D0D68AA42DCD3F0BCA4
S113313070470000000000000000000000000000D4
S1133140000000000000000000000000000000007B
S1133150000000000000000000000000000000006B
S1133160000000000000000000000000000000005B
S1133170000000000000000000000000000000004B
S1133180000000000000210032003D0049004A0018
S11331904B004C004D00610073000000240025002A
S11331A02B0031003600000020000000260038000B
S11331B039003A00000027002C002D002E003700B3
S11331C03B0040005A0066006A006B006C0000007F
S11331D00000000030B5044681B02069000E00F004
S11331E00F00401E05280D462FD8DFE800F0241EEE
S11331F0072E2E03204600F069FB04E0D4F80003F8
S1133200C0F3006060BB2169C1F30341491CB0FBFA
S1133210F1F0BDB3022D2CD033D22169C1F30311D7
S1133220491CB0FBF1F001B030BDD4F80002C0F38A
S1133230006060B9E7E7D4F80001C0F3006000283B
S11332401CBFDFF80C070068DDE70020DBE7D4F8DB
S11332500802C00754BFDFF8FC06DFF8FC06D2E71B
S1133260D4F808130FF2307001F0030150F8210074
S1133270C9E7216901F00F01491CB0FBF1F001B06D
S113328030BD002001B030BD2DE9F04F81B00D46B6
S1133290537892F802C0D17812780C0604F0706E5C
S11332A04FEA0C4404F4702444EA0E0E1C0104F0AA
S11332B0F00444EA0E0E02F00F04804600260027B4
S11332C044EA0E04491E00200CF1010E5B1C521C42
S11332D005298146CDF800E013FB0EFA12FB0EFB24
S11332E02CD8DFE801F0030C1A2B2B28D8F8001196
S11332F0C1F3006111B3DFF8580600681EE0D8F886
S11333000012C1F30061C9B1D8F80802C00754BF64
S1133310DFF84006DFF8400610E0D8F80013C1F3E8
S1133320006159B1D8F808130FF26C6001F0030181
S113333050F8210002E0404600F0C8FA012D06D002
S113334010D3032D08D038BF08F118070AE008F19C
S113335014074FF0010905E008F11807C8F81C40EC
S11333604FF002090FF2FC5109EB490201EB820113
S1133370009A0B685A43824222BF4A6802FB0AF24F
S1133380824222BF896801FB0BF1814204D20126EB
S1133390304601B0BDE8F08F07B13C60304601B063
S11333A0BDE8F08F03290BD8DFE801F0020406081A
S11333B0006906E0406904E0806902E0C06900E059
S11333C00020010E01F00F01491E05290CD8DFE889
S11333D001F00305070B0B09012106E0022104E0BB
S11333E0032102E0062100E00721D170C0F303436A
S11333F00FF294515B5C9370C0F3031300F00F0061
S11334005B5C5370405C10707047002141738173A2
S1133410C17341600174C17201730172417201216F
S1133420817241747047D0F800310A460021C3F319
S1133430406313B10221084670474FF08063C0F81F
S1133440003192F80CC0D37A4FEA0C2C03F0070336
S11334500CF4E06C4CEA0303C0F8043192F809C0A0
S1133460937A1B014FEACC0C03F030030CF0080CE8
S11334704CEA030392F808C04FEA8C0C0CF0040CDD
S11334804CEA0303C0F80831DFF8D0C4D37BDB0077
S113349043F00103C0F80031D0F800310CEA030313
S11334A0D2F804C04CEA0303C0F80031D0F800316C
S11334B092F810C023F4000343EACC53C0F800315F
S11334C01068DFF88C24106008467047D0F800219B
S11334D00021C2F3406212B1022108467047D0F8BD
S11334E0002122F40002C0F800214FF08062C0F8ED
S11334F000210846DFF8582411607047D0F8000115
S1133500C0F3006010B1DFF8480400687047D0F8D9
S113351000210023C2F30062002A1EBFDFF830241A
S11335201268002A10D031B1012908D1D0F8040161
S1133530C0F3022303E0D0F8040100F007031BB139
S1133540581EC240104670470022104670470021A2
S1133550017101214171002181714170817001214A
S11335600170C1707047D0F800320A460021C3F3DD
S1133570406313B1022108467047D0F800325B085B
S11335805B00C0F8003292F802C053784FEA0C2C6A
S113359003F007030CF4E06C4CEA0303C0F80432B4
S11335A0137803F00103C0F8083292F805C01379C8
S11335B04FEA8C0C4CEA430343F00103C0F8003299
S11335C0D0F80032927923F4000343EAC252C0F8DF
S11335D0002208467047D0F80012C1F3406109B1D7
S11335E002207047D0F8001221F40001C0F8001244
S11335F00021C0F8001200207047D0F80012C1F377
S1133600006131B1D0F80802C0074CBFD248D1489C
S1133610704700207047D0F800220023C2F30062F4
S1133620B2B1D0F80822D2074CBFCB4AC94A31B153
S1133630012908D1D0F80402C0F3022303E0D0F832
S1133640040200F007031BB1581EC2401046704725
S11336500022104670470021417181710121C1711E
S11336600021417281720172417081700170C170D8
S113367001710121C172704730B4D0F800330A4699
S11336800021C3F340631BB130BC022108467047DC
S1133690D0F800335B085B00C0F80033D0F8003387
S11336A023F48073C0F80033D0F8003343F0806310
S11336B0C0F8003394785378240203F0070304F429
S11336C0E0642343C0F80433137803F00303C0F821
S11336D00833537A2BB3D0F80C43A408A40044F065
S11336E00204C0F80C43947A002CD0F8004304D0B0
S11336F044F40074C0F800430DE024F40074C0F8EE
S11337000043D4781579240204F47C5405F07F0531
S11337102C43C0F81843D0F8004344F48074C0F834
S11337200043D0F80043D57924F0090485F001055D
S113373044EAC50444F00104C0F80043D0F800434F
S1133740127A24F4000444EAC252C0F80023D0F8E8
S11337500003C0F3806000281CBF002B012130BC93
S113376008467047D0F800230021C2F3406212B12A
S1133770022108467047D0F8002322F40002C0F862
S113378000234FF08062C0F8002308467047D0F849
S11337900013C1F3006141B1D0F808030FF2F8112E
S11337A000F0030051F82000704700207047D0F863
S11337B00023C2F30062D2B1D0F808230FF2D81369
S11337C002F0030253F82220002382B131B101290F
S11337D008D1D0F80403C0F3022303E0D0F80403B3
S11337E000F007031BB1581EC24010467047002268
S11337F0104670470021417201608172C1710172EB
S11338000171417181710121C1727047D0F8003694
S11338100A460021C3F3406313B1022108467047EE
S1133820D0F800314FF08063C0F8003692F808C039
S1133830D3794FEA0C2C03F007030CF4E06C4CEA48
S11338400303C0F8043692F805C013791B024FEA4B
S11338500C4C03F4E0630CF4F81C4CEA030392F8F8
S113386006C00CF0010C4CEA0303C0F8083601232F
S1133870C0F80036DFF8E4C0D0F800360CEA0303E1
S1133880D2F800C04CEA0303C0F80036D0F8003682
S1133890927A23F4000343EAC252C0F80026084691
S11338A07047D0F800260021C2F3406212B1022111
S11338B008467047D0F8002622F40002C0F800261B
S11338C04FF08062C0F8002608467047D0F8001612
S11338D0C1F3006100291EBFD0F80011C1F30061DB
S11338E0002910D01A49096869B1D0F80826D0F81F
S11338F00806C2F30222521CC0F30440B1FBF2F1E9
S11339001030484341080846704730B581B004463A
S11339100D46FFF7DBFF002180B135B1012D08D141
S1133920D4F80416C1F3022103E0D4F8041601F01C
S1133930070119B1491EC84001B030BD002001B0D3
S113394030BD0748016070470548006870470000B3
S11339500001002080841E0000127A00FFFFFCFB9F
S1133960FC00002000093D0000093D0040420F001A
S113397000B4C404005A6202B0F3960100FCAC0621
S1133980007E5603003FAB01000102030405060755
S113399008090A0B0C0D0E0F006CDC0200751903EC
S11339A0007E5603008793034068C20A02F00102B6
S11339B04A70420902F00702521E062A13D8DFE8B1
S11339C002F0100E0C0A0806040007220CE006227E
S11339D00AE0052208E0042206E0032204E00222B1
S11339E002E0012200E00022000A00F00700401E6D
S11339F006288A701AD8DFE800F01613100D0A079B
S1133A0004000720C87070470620C870704705205E
S1133A10C87070470420C87070470320C87070478E
S1133A200220C87070470120C87070470020C87019
S1133A30704742684B7822F47E6242EAC3228B7854
S1133A40C9785B0103F0E00309021A4301F4E06161
S1133A501143416070470000C068072923D8DFE89C
S1133A6001F004070A0D0F121518C0F3016012E0EB
S1133A70C0F381600FE0C0F301700CE0800F0AE036
S1133A80C0F3014007E0C0F3814004E0C0F30150FB
S1133A9001E0C0F38150012806D004D3032803D0E9
S1133AA001D202207047002070470000026992088A
S1133AB0002102F00302032A14D8DFE802F0021303
S1133AC0060E4FF4FA31084670470069C0F340000F
S1133AD040B14FF4FA41084670470069C00748BF37
S1133AE04FF47A71084670474FF4FA307047006912
S1133AF00021C0F3400008B14FF4FA410846704772
S1133B0000690021C00748BF4FF47A710846704726
S1133B10826E22F08052826642688B781B0322F404
S1133B20805203F480531A434260826ECB785B0068
S1133B3022F00E0203F00E031A438266826E0B79A2
S1133B40520843EA42028266826E497822F0805229
S1133B5042EA0171816670472DE9F0410446DFF8BD
S1133B60E40186B050F824600F46154668460021EB
S1133B70002200230EC006C0E87987F82000688878
S1133B803880297A87F824107A716A7A87F8222093
S1133B90AA7A87F82320072210421ABFC008401CC3
S1133BA0C008788039B978880321084203D00328F3
S1133BB028BF012050D23B73002107F12500FDF7F7
S1133BC075FF8046DFF8800140F824703046FEF728
S1133BD02FFE00213046FEF73DFE01230022002186
S1133BE03046FEF784FE002207F121013046FEF73D
S1133BF03DFE2A7800213046FEF766FE38880090A4
S1133C0069460020ADF804008DF806008DF809001F
S1133C10E8798DF80A0028798DF81000A8798DF8D4
S1133C20110068798DF80B003046FEF7B2FEB069DA
S1133C3040F40070B061B06D20F47F00B065B06DE9
S1133C4020F47F00B065306940F0010030613F48E6
S1133C502056FEF7CFFD404606B0BDE8F08170B5B2
S1133C600546384850F82540374850F825606069C3
S1133C70000548BF012003D46069C00406D50220B2
S1133C8086F826002846BDE8704025E06069800774
S1133C9044BF2846FEF77EFF308B6169C90703D510
S1133CA010B12846FEF7B8FE308B718B18B9A269A3
S1133CB052085200A26119B9A26922F00202A2615B
S1133CC0084308D13073707928B106F12500FDF757
S1133CD0DBFE0020707170BD30B51A4981B051F817
S1133CE02040194951F8205095F82410012908D191
S1133CF0A16949084900A161A16921F00201A161FA
S1133D0007E0E16921F00201E161E1694908490044
S1133D10E161FEF7F8FF002028730122012120460B
S1133D20FEF7B3FD012201212046FEF7AEFD6879BE
S1133D3028B105F12500FDF7A7FE002068710020D9
S1133D4001B030BDCC84FF1FD884FF1FE484FF1F63
S1133D50002200F003B81021FFF7FABF401810F05A
S1133D60030308D0C91A1FD3DB0748BF00F8012D8D
S1133D7028BF20F8022D130030B41446154610391C
S1133D8028BF20E93C00FAD8490728BF20E90C00E5
S1133D9048BF40F8042D890028BF20F8022D48BFF1
S1133DA000F8012D30BC7047C91818BF00F8012D68
S1133DB0CB0728BF00F8012D7047FEE70168C1F367
S1133DC0005181B10168490049080160016821F08E
S1133DD080410160016821F0805101600168C1F3F4
S1133DE000510029FAD170470168C90F08D1016850
S1133DF041F0004101600168C1F300510029FAD08B
S1133E0070474268490322F4005201F400511143FF
S1133E104160704710B50446206840F0007020608F
S1133E202068C0F340600028FAD1DFF80C158C42FA
S1133E3008BF4FF4007008D0DFF800158C421ABF99
S1133E40DFF8FC148C424FF48070800804D08100A9
S1133E5004F1800000F08CFB216841F08041216076
S1133E6004F50860216841F0805121602168C1F3A4
S1133E7000610029FAD0402100F07AFB206820F08C
S1133E8080502060206820F0804020602068C0F3CB
S1133E9000600028FAD1206840F08040206020684B
S1133EA040F0805020602068C0F300600028FAD001
S1133EB0206840F4805020606FF0604020616061B1
S1133EC0A061206820F080502060206820F08040AD
S1133ED020602068C0F300600028FAD1A06210BD01
S1133EE030B4026842F080420260026842F08052BC
S1133EF002600268C2F30062002AFAD0026D002A4E
S1133F001FD5026DDFF83C5402F000420265026DD9
S1133F100B680C7A9B0203F47C4304F01F042343D4
S1133F204C68640104F478742343CC68096905EA95
S1133F3044540904234301F4F8111943114301655E
S1133F401CE042684FF6F8731A40426042688C687D
S1133F500B78240403F0070304F4E02423434C689F
S1133F60E40404F460142343CC680969890543EA32
S1133F70046301F44001194311434160016821F0D5
S1133F8080510160016821F0804101600168C1F342
S1133F9000610029FAD130BC704730B4026842F0A5
S1133FA080420260026842F0805202600268C2F3FA
S1133FB00062002AFAD0D0F8042CDFF88C33DFF842
S1133FC08C531A40C0F8042CD0F8042C0B680C7ADB
S1133FD09B0203F4F84304F0070423434C68640190
S1133FE004F0E0042343CC68096905EA0454090495
S1133FF0234301F4E02119431143C0F8041C016870
S113400021F080510160016821F080410160016864
S1134010C1F300610029FAD130BC704730B40A46BC
S1134020036800211B0548BF012142D4036843F003
S113403080430360036843F0805303600368C3F361
S11340400063002BFAD01206036843F000530360A8
S113405002F07062436B23F070631A4342636FF0A3
S113406060428264036813F07F0315D013F00305E4
S113407000F5086403D06D1E44F8042BFBD19B08A3
S113408000F00A8044F8042B44F8042B44F8042B71
S11340905B1E44F8042BF5D1026822F080520260C2
S11340A0026822F0804202600268C2F30062002AC1
S11340B0FAD1084630BC70472DE9F043044681B07C
S11340C020680005884658BF082708D5D4F8001C86
S11340D0090C01F003010120C91C00FA01F70020BA
S11340E0DFF854128C42FFB208BF4FF4007008D0BE
S11340F0DFF848128C421ABFDFF844128C424FF4A6
S11341008070216841F0804121600025216841F0E0
S1134110805121602168C1F300610029FAD007F1C0
S11341200801B0FBF1F0C0B2404538BF4FF4407510
S113413030D32068C00908F07F0141EAC010206034
S11341402068800026D40026B8F1000F4FF0010942
S113415020D021680905304658BF102109D5D4F86C
S1134160001C090C01F00301C91C09FA01F1083112
S1134170C9B2890811FB00F004EB800040F8805FAD
S113418045601FB139460830FFF7E2FD761CF6B2F0
S11341904645DED3206820F080502060206820F05F
S11341A0804020602068C0F300600028FAD12846CF
S11341B001B0BDE8F0830000D0F800C000230CF08B
S11341C07F0C614528BF4FF440730AD2002A4FF098
S11341D0010C826A0CFA01F114BF114322EA0101B5
S11341E08162184670470B466AB1B1F5806F18BFFB
S11341F0B1F5006F03D1016841F400110160416819
S11342001943416070474168994341607047016AAE
S113421011F0070F02D007210162006A704702689B
S113422042F080420260026842F0805202600268FA
S1134230C2F30062002AFAD0002901680CBF21F4FD
S1134240803141F480310160016821F080510160C6
S1134250016821F0804101600168C1F30061002917
S1134260FAD17047D0F800C0134600220CF07F0C3E
S1134270614528BF4FF4407280F02880D0F800C018
S11342804CF0804CC0F800C0D0F800C04CF0805C0A
S1134290C0F800C0D0F800C0CCF3006CBCF1000F33
S11342A0F8D000EB8101DFF8A8C00CEA8343C1F821
S11342B08038016821F080510160016821F080415B
S11342C001600168C1F300610029FAD1104670470A
S11342D0D0F800C0134600220CF07F0C614528BFC3
S11342E04FF4407280F02680D0F800C04CF0804C2F
S11342F0C0F800C0D0F800C04CF0805CC0F800C02A
S1134300D0F800C0CCF3006CBCF1000FF8D0DB0097
S113431000EB8101DB08C1F88038016821F080518D
S11343200160016821F0804101600168C1F300610E
S11343300029FAD110467047004002400050024064
S113434000B002400000E07F188308C00000F03F86
S11343500000FC1F03290DD1016841F08041016078
S1134360016841F0805101600168C1F300610029D6
S1134370FAD07047042904D1016841F0004101607A
S11343807047036843F080430360036843F080533D
S113439003600368C3F30063002BFAD059B90168C2
S11343A021F400010160416821F008014160416885
S11343B021F480510EE0012903D1416841F0080144
S11343C008E0022907D1416841F480514160416805
S11343D021F008014160016821F080510160016809
S11343E021F0804101600168C1F300610029FAD124
S11343F07047026842F080420260026842F08052D4
S113440002600268C2F30062002AFAD0026822F451
S1134410006242EAC1210160016D41F00041016581
S1134420016821F080510160016821F08041016040
S11344300168C1F300610029FAD170470068C00A1D
S113444000F0010070470268120523D5026842F0AB
S113445080420260026842F0805202600268C2F345
S11344600062002AFAD0D0F8002C22F4D81242EAD2
S1134470014242EAC141C0F8001C016821F08051A8
S11344800160016821F0804101600168C1F30061AD
S11344900029FAD17047026842F080420260026843
S11344A042F0805202600268C2F30062002AFAD02D
S11344B0426B22F4805242EA01314163016821F0E7
S11344C080510160016821F0804101600168C1F3FD
S11344D000610029FAD17047026842F0804202600C
S11344E0026842F0805202600268C2F30062002A4D
S11344F0FAD081F00101026822F4003242EA41411B
S11345000160016821F080510160016821F080415F
S113451001600168C1F300610029FAD170470268A3
S113452019B1920001D401207047026842F0804220
S11345300260026842F0805202600268C2F30062C4
S1134540002AFAD0026822F4004242EAC131016032
S1134550016821F080510160016821F0804101600F
S11345600168C1F300610029FAD100207047FEE719
S1134570002200F005B8FEE762F30F2262F31F4247
S113458000B500BF130096469446103928BFA0E832
S11345900C50FAD85FEA417C28BF0CC048BF40F8F1
S11345A0042BC90728BF20F8022B48BF00F8012BB1
S11345B000BDFEE70B6823F070631A4302604A688B
S11345C042608A6812BA8260CA6812BAC2600A6912
S11345D012BA02614A6912BA42618A6912BA8261E4
S11345E0CA6912BAC2610A6A12BA02624A6A12BA81
S11345F042628A6A12BA8262CA6A12BAC2620A6BD6
S113460012BA02634A6B12BA42638A6B12BA8263A9
S1134610CA6B12BAC2630A6C12BA0264496C09BA50
S11346204164704770B5ECB001208DF84C008DF8F2
S11346304D000720119000208DF848008DF84900A6
S11346408DF84A0003208DF84B00072014900420B5
S11346501590012016900920179001201890092028
S1134660199004201A901B9001201C901D9000208A
S11346708DF878008DF879000090ADF804004020A2
S11346808DF8060004208DF807008DF8080000203E
S11346908DF80900ADF80A00039004900590069087
S11346A0079008900990ADF8280011AADFF8540487
S11346B0DFF854440B9029A903208DF83000002022
S11346C08DF831008DF832001020ADF83400DFF899
S11346D03C040E9001208DF83C0000208DF83D0034
S11346E08DF83E0001208DF83F00FF208DF840003A
S11346F08DF84100DFF818040068E061002000F044
S11347000DFAE0690121FFF78AFDE06901224FF407
S11347108041FFF768FD0BAA1FA90120FDF7D4F91A
S113472001216846FCF75CFCE06900F1800121602E
S113473001220021FFF740FDE06900F1C80161603A
S113474001220121FFF738FDE06900F58871A160BD
S113475001220221FFF730FDE06900F5AC71E16050
S113476001220321FFF728FDE06900F5D0712161E2
S113477001220421FFF720FDE06900F5F471616175
S113478001220521FFF718FDE06900F50C71A16114
S113479001220621FFF710FD20684FF080660660B5
S11347A00022E0690021FFF75DFDE069002200219D
S11347B0FFF78EFDE06901220021FFF7FDFC606830
S11347C006600022E0690121FFF74CFDE069002248
S11347D00121FFF77DFDE06901220121FFF7ECFCD7
S11347E0A0684FF0846505600022E0690221FFF7AC
S11347F039FDE06900220221FFF76AFDE069012228
S11348000221FFF7D9FCE06805600022E06903217A
S1134810FFF728FDE06900220321FFF759FDE06955
S113482001220321FFF7C8FC20690268082161F313
S11348301B6202606069026861F31B620260A06926
S1134840026861F31B6202606CB070BD001D00223F
S1134850C0B2072840D2AC4B53F820000368C3F31E
S11348600363082B38D10A6822F0706242F00062B8
S113487002604A6842608A6812BA8260CA6812BAE0
S1134880C2600A6912BA02614A6912BA42618A694B
S113489012BA8261CA6912BAC2610A6A12BA02629F
S11348A04A6A12BA42628A6A12BA8262CA6A12BA3C
S11348B0C2620A6B12BA02634A6B12BA42638A6B0F
S11348C012BA8263CA6B12BAC2630A6C12BA026465
S11348D00122496C09BA416410467047001D002149
S11348E0C0B207280DD2884A52F820000268C2F3E9
S11348F00362082A05D102680C2161F31B6202607D
S1134900012108467047001D0021C0B207280DD2BE
S11349107D4A52F820000268C2F303620C2A05D1D2
S11349200268092161F31B62026001210846704795
S11349307849C0F30340405C704770477248C069CF
S1134940FFF765BC7047F0B583B00020009001A864
S113495000F0A0F96C4CE06900F128010A6889684C
S113496002EA010515F00F0F76D005F00F06F107E6
S113497019D501210163684600F0BCF92168074696
S1134980086800F070620098001DFFF713FE2068AD
S1134990016821F4001141F080610160E0698068E0
S11349A0384600F001FAC6F34000D0B1E1690220B4
S11349B00863684600F09EF961680746086800F0DD
S11349C070620098001DFFF7F5FD6068016821F42E
S11349D0001141F080610160E0698068384600F0B0
S11349E0E3F9C6F38000D0B1E169042008636846A6
S11349F000F080F9A1680746086800F0706200982A
S1134A00001DFFF7D7FDA068016821F4001141F0F3
S1134A1080610160E0698068384600F0C5F9F008FB
S1134A201AD0E16908200863684600F063F9E16878
S1134A300646086800F070620098001DFFF7BAFD92
S1134A40E068016821F4001141F080610160E069CF
S1134A508068304600F0A8F915F0700F4BD005F0CF
S1134A607006C6F30010A8B120690068C0F30360A3
S1134A70082803D1002000F046FA08E0092806D1EE
S1134A80002000F066FA21694FF0006008601020F1
S1134A90E1690863C6F34010A8B160690068C0F317
S1134AA00360082803D1012000F02DFA08E009284A
S1134AB006D1012000F04DFA61694FF000600860F2
S1134AC02020E1690863B00915D0A0690068C0F32B
S1134AD00360082803D1022000F015FA08E0092831
S1134AE006D1022000F035FAA1694FF00060086099
S1134AF04020E1690863019800F0D1F803B0F0BDEB
S1134B000000000020A10700C000002000127A006D
S1134B10706700000084FF1F7047FEE72DE9F04135
S1134B200446DFF8580186B050F824700D46164646
S1134B303846FFF759F9717A3846FFF762F9384673
S1134B40FFF73CF93846FFF765F9317A3846FFF745
S1134B5050FC3846FFF772FC317A88426ED13846F1
S1134B60FFF799FCB079022803D000213846FFF7FB
S1134B70B3FC707928B131793846FFF74FFA002831
S1134B8078D196F83400012805D101213846FFF781
S1134B90C6FC00286ED1B1793846FFF7DBFBF1790A
S1134BA03846FFF750FC31683846FFF785FA00288D
S1134BB060D106F10C01B1E80C5168466946A0E8E1
S1134BC00C513846FFF78CF93846FFF737FC50B1E3
S1134BD006F12001B1E80C5168466946A0E80C5181
S1134BE03846FFF7DAF9DFF89800DFF898702056B6
S1134BF0FDF700FEDFF890002056FDF7FBFDDFF81F
S1134C008C002056FDF7F6FD17F91400FDF7F2FDB0
S1134C1007EB4400002790F90100FDF7EBFDA846DF
S1134C20002108F10400FCF741FF58B137B12C1DF5
S1134C302046FCF747FF08347F1EF9D1012006B057
S1134C40BDE8F08188F80600C8F800007F1C88F8E9
S1134C500500202F08F10808E2D396F8340085F8FF
S1134C60090196F8350085F80801DFF8240040F8BA
S1134C702450002006B0BDE8F081000070670000F9
S1134C807C6700008867000080670000846700007C
S1134C902C010020EFF31081016072B6704780F39D
S1134CA010887047334901F59050BF30002242709C
S1134CB04E31531C4B70521C00230B70531C81F853
S1134CC05130521C002381F85030531C81F8A1301C
S1134CD0521C002381F8A030531C81F8F130521C7F
S1134CE0002381F8F0303C2A01F5A071E1D3FF21C3
S1134CF00170704730B44FF496521E4BD15C3C297E
S1134D0000D3FEE701EB810403EB041494F84F5045
S1134D10D554FF2284F84F20012284F84E200460E9
S1134D20084630BC70473C2800D3FEE7114900EB2D
S1134D30800201EB021292F84E304BB14FF49653BD
S1134D4013F801C0585482F84FC0002082F84E0076
S1134D50704701223C2800D3FEE7064B00EB800C91
S1134D6003EB0C1090F84E30002B14BF08600022A7
S1134D7010467047E004002000B581B06846FFF794
S1134D8089FF2648002181808171FF220421FFF7D9
S1134D90F3FB0098FFF783FF01B000BD1F49897939
S1134DA0012001B10020704770B51C4C82B005464B
S1134DB0207900F00306A07904280ED06846FFF796
S1134DC069FF3555A079401CA0712079401C2071E1
S1134DD00098FFF764FF02B070BDFEE7F0B50F4D19
S1134DE081B00646687900F003076846FFF752FF72
S1134DF0A879012450B1785D3070FF207855A879E6
S1134E00401EA8716879401C687100E00024009875
S1134E10FFF745FF204601B0F0BD0000500100201F
S1134E205F480021017041806521017100210172F8
S1134E3041816521017370472DE9F04182B0044638
S1134E4001260020102C0D461746984600903DD2AE
S1134E5069462846FFF77DFFB8B30098477000986D
S1134E6080F8028065200099C870791E0098401C63
S1134E7000F0AFF80099082C087021D201A8FFF7C0
S1134E8009FF474F788906FA04F1884378810321A2
S1134E9007F10A0000F09DF838720198FFF7FFFE51
S1134EA00098011D2046FFF7D1FC48B12046FFF7CA
S1134EB015FD28B1E0190574304602B0BDE8F08153
S1134EC00026304602B0BDE8F081FEE700263046F9
S1134ED002B0BDE8F08110B50124102838BF0828BD
S1134EE002D2FFF710FD00B90024204610BD2D4A60
S1134EF002600420087001207047294A02600420DF
S1134F0008700120704770B504460125082C82B052
S1134F101BD26846FFF7BEFE214E708805FA04F1E5
S1134F20084370800321B01C00F053F830700098DF
S1134F30FFF7B5FEA019007CFFF7F5FE4FF4806083
S1134F4000F086F8284602B070BD0025284602B05D
S1134F5070BD70B504460125082C82B01BD268468A
S1134F60FFF798FE0E4E708905FA04F1084370812C
S1134F70032106F10A0000F02CF830720098FFF7C4
S1134F808EFEA019007CFFF7CEFE204600F0DBF871
S1134F90284602B070BD0025284602B070BD00004E
S1134FA0B88FFF1FC08FFF1F00B585B000208DF89C
S1134FB0000069464FF6FF70019041F22100029013
S1134FC00020ADF80C008DF80E0000F0BDFA05B01D
S1134FD000BD10B501B9FEE70A460146002000F005
S1134FE0C3FA002000F0DFFA04464FF6FF710020F8
S1134FF000F011FBE0B210BD33484FF400410160F2
S113500000BF00BF4160704730480021417081708B
S11350106521C1700021417281726521C1724FF412
S113502000402B490860704730B581B0044668469B
S1135030FFF730FE254D6868204368600721681C2F
S1135040FFF7C7FF28700098FFF729FE01B030BDB5
S113505030B581B005466846FFF71CFE1B4CE0687E
S113506061682A0212BA42EA0005684028400842F0
S113507018BFFFF7C1FFE560072104F10900FFF73E
S1135080A8FF20720098FFF70AFE01B030BD10B5EA
S113509082B004466846FFF7FDFD20BA0B4CE16878
S11350A021EA0000E060072104F10900FFF791FF05
S11350B020720098FFF7F3FD02B010BD034870475B
S11350C00448704700000000C4F00F40380100207D
S11350D0C8F00F40400100204108C90644BF00F059
S11350E01F0000F010BB704730B50124022881B0C6
S11350F025D2DFF8A853A98804FA00F00843A88051
S11351002C72DFF89C030078D0B16846FFF7C2FD2B
S1135110287A60B107212846FFF75BFFE87108226F
S11351202946DFF8800300F005FB00202872009870
S1135130FFF7B5FD00F001FD204601B030BD0024AD
S1135140204601B030BD30B50124022881B026D2FA
S1135150DFF84853A98804FA00F021EA0000A88087
S11351602C72DFF83C030078D0B16846FFF792FD5B
S1135170287A60B107212846FFF72BFFE87108223F
S11351802946DFF8200300F0D5FA002028720098A1
S1135190FFF785FD00F0D1FC204601B030BD0024AE
S11351A0204601B030BD30B50124042881B025D299
S11351B0DFF8E852296804FA00F0084328602C72EA
S11351C0DFF8DC020078D0B16846FFF763FD287A87
S11351D060B107212846FFF7FCFEE8710822294642
S11351E0DFF8C00200F0A6FA002028720098FFF74A
S11351F056FD00F0A2FC204601B030BD002420463C
S113520001B030BD30B50124042881B026D2DFF8C6
S11352108C52296804FA00F021EA000028602C72FC
S1135220DFF87C020078D0B16846FFF733FD287AB6
S113523060B107212846FFF7CCFEE8710822294611
S1135240DFF8600200F076FA002028720098FFF779
S113525026FD00F072FC204601B030BD002420463B
S113526001B030BD10B582B06846FFF713FD8B4C1A
S1135270207A58B107212046FFF7ABFEE0710822DF
S11352802146884800F056FA002020720098FFF763
S113529006FD02B010BD01207047012070470120B7
S11352A0704700B581B0FFF7F2FE012001B000BDE8
S11352B000B581B0FFF7B8FE012001B000BD0120A8
S11352C0704730B5044601200025E10781B004D5BC
S11352D00020FFF700FE00B90125A10704D5012035
S11352E0FFF7F9FD00B96D1CEDB205B1002001B066
S11352F030BD012070470120704701207047012014
S113530070470120704730B581B00C461546FFF751
S1135310D7FE206065202168C8700420287001B081
S1135320012030BD30B581B00C461546FFF7C6FEEE
S1135330206065202168C8700420287001B0012015
S113534030BD0120704710B50C4611462046FFF7CA
S1135350CEFD216865200871012010BD10B50C46F2
S113536011462046FFF7C9FD216865200871012018
S113537010BD30B581B00C46154600F0A9F960B1F6
S1135380297839B9484921609322CA7004212970C7
S113539001B030BD22686521D17001B030BD30B597
S11353A081B00C46154600F0E1FC60B1297839B9AA
S11353B03D4921609322CA700421297001B030BD97
S11353C022686521D17001B030BD30B581B00C4682
S11353D0154600F034FD60B1297839B932492160AD
S11353E09322CA700421297001B030BD226865215E
S11353F0D17001B030BDF0B583B0044600200090F8
S11354000D4616461F4669462846FFF7A2FC0028AB
S113541042D0052E40D30098711E401CFFF7D9FDE1
S11354200099097881422ED13B46324629462046CE
S1135430FFF702FD70BB022C20D2184EB088012168
S1135440A1408843B0800120307215480078A8B18B
S113545001A8FFF71FFC307A58B107213046FFF747
S1135460B8FDF071082231460E4800F063F90020BF
S113547030720198FFF713FC00F05FFB2846FFF73A
S113548052FC802004E02846FFF74DFC4FF48010C6
S1135490FFF7DEFD03B0F0BDFEE700001C010020B5
S11354A06401002008010020C884FF1F70B582B089
S11354B00446002000900D46164669462846FFF72C
S11354C048FCC8B1052E17D30098711E401CFFF785
S11354D080FD00990978814205D100993246204621
S11354E000F0F1FB03E04FF48010FFF7B1FD284614
S11354F0FFF719FC02B070BDFEE770B582B0044638
S1135500002000900D46164669462846FFF721FC08
S1135510C8B1052E17D30098711E401CFFF759FD22
S113552000990978814205D100993246204600F05D
S113553034FC03E04FF48010FFF78AFD2846FFF7A0
S1135540F2FB02B070BDFEE730B504460FF2E40092
S113555081B050F824000D4600F014FD2946204681
S113556001B0BDE8304024E00FF2C80353F8200036
S1135570C2B112F0030305D011F801CB80F800C0CA
S11355805B1EF9D192080DD011F8013B0370521E35
S113559011F8013B037011F8013B037011F8013B52
S11355A00370F1D170470FF28C0151F8200000F024
S11355B007BD0FF2800252F8200082680B781B06A8
S11355C022F0807203F080731A43826082680B7B3E
S11355D09200920842EA8372826082684B7B1B07C6
S11355E022F0405203F040531A43826082688B7B5E
S11355F022F0806242EA836282608A684260826842
S113560042F00072826049680160816821F0007193
S11356108160002070470FF21C0252F8200082685B
S113562042F0007282600160816821F00071816043
S11356300020704700200340FF2220213C48FEF751
S11356409BBF2DE9F04182B004460020202C0D467A
S113565017461E464FF0010800902AD26946284694
S1135660FFF777FB20B30099381D487000988670C7
S1135670652000992E4EC870F91C0098401CFFF755
S1135680A8FC00990870A05DFF2818BFFFF74BFB2A
S1135690A555082CB4BF4FF480704FF40070FFF789
S11356A0D7FC2046FFF77FFD404602B0BDE8F081FD
S11356B0FEE78046404602B0BDE8F0810121202883
S11356C003D21B4A805CFF2800D0002108467047A3
S11356D070B5012620280C46154611D21449405CA9
S11356E0FF2809D02146FFF734FB20B12068407819
S11356F02870304670BDFEE700202870304670BD2B
S11357000026304670BDB0B504460125202C0CD2CD
S1135710074FE05DFF2809D0FFF705FBFF20E055A8
S11357202046FFF76FFD2846B0BD00252846B0BDD2
S1135730C004002062B38B0708D0521E11F8013B4D
S113574000F8013B00F024808B07F6D1830740F07A
S1135750208000BF103A07D330B4B1E83810103AB3
S1135760A0E83810F9D230BC530724BFB1E80810C0
S1135770A0E8081044BF51F8043B40F8043BD207AA
S113578024BF31F8022B20F8022B44BF0B7803709E
S11357907047083A07D3B1E80810083A40F8043BC8
S11357A040F804CBF7D25307E4E7FEE730B5B1B0D5
S11357B013A8079000210FA808908DF831100CA8A9
S11357C005900E2109A806908DF832100020ADF83E
S11357D004000021FF208DF830008DF82400012002
S11357E08DF825000F208DF826000820ADF80A005A
S11357F00120DFF868430D910E910A910B918DF809
S11358000810ADF80C108DF80E008DF80F10ADF8DF
S113581010108DF81200607021703C20FCF7EAFF34
S11358200220009005AB07AA01A917A8FDF784FA86
S1135830CB4D30206870287000F0EFFB606004F1FD
S1135840580304F10C02C74900F04CFC02AA27A932
S11358500020FEF781F94020A87600F0F9FC31B071
S113586030BD0000F0B583B000208DF80400009036
S1135870BA4CBD496068067801EB46056178052994
S113588000F2E880DFE801F0E503DA814AB829781C
S1135890032942D8DFE801F030022139B34B4778BD
S11358A06D7853F8253001AA04F108013846984769
S11358B038B19DF80420A06804F1580100F092FC6E
S11358C001E000F0B6FCAA490E700F70042060706D
S11358D00020FDF7D6FA03B0F0BD45786846FFF71F
S11358E009FAA0702A46009904F10C0000F07AFC31
S11358F09F490E700D70E9E700F081FC9C490E7021
S11359006068407808700320E1E700F078FC4FF409
S11359108010FFF79DFB0220D9E7FEE7821C944923
S113592013780B7053780B7093780B70D3780B70DB
S113593013790B700988C079C9B2814205D11088E6
S1135940FFF7CAFB052060700BE0287801280ED110
S1135950A1689520C870052060704FF48010FFF78F
S113596077FB4FF6FF710020FFF755FEB0E70228E2
S11359700AD100F05EFCA078FFF7D5F96068794998
S113598000F094FC0020E7E7FEE77A490A68520831
S113599052000A600A6822F002020A60821C7449FA
S11359A013780B7053780B7093780B70D3780B705B
S11359B013790B700988C079C9B2814211D110885A
S11359C0FFF78AFB60680178442903D1FF2000F0C7
S11359D033FB0AE0406868496A7851F82210884726
S11359E003E04FF48010FFF733FB4FF6FF71002004
S11359F0FFF711FE00206AE75E490A685208520068
S1135A000A600A6822F002020A60297802290DD18C
S1135A100178402904BF4078FFF766FBA07800F0C6
S1135A200BFB00F0FAFA606000F0D5FB04F15801BA
S1135A3004F10C0000F02BFC002048E74D490868F5
S1135A40400840000860086820F002000860002058
S1135A503DE7FEE7FEE70120FDF713BA70B5474DB9
S1135A60EE6A00240CE0F00708D5002221462846FF
S1135A70FDF7C4FA2046FDF704FAAC777608641CF7
S1135A8016B1E4B2022CEEDB286820F02000286076
S1135A9070BD10B53A4C6069800503D500F009F873
S1135AA0092101E04FF47C512046BDE81040FCF789
S1135AB0F3BE30B5294C81B0002020706078C8B1A5
S1135AC000F0B7FB607804280FD16068264900789D
S1135AD011F81000022804BFA078FFF724F904F19C
S1135AE0580104F10C0000F0D2FB60681D4900F07D
S1135AF0DDFB11E0234D287828B11A49002000F07D
S1135B00D5FB00202870204D287828B1606800213A
S1135B1000F0CCFB00202870FFF7A4FB012060708C
S1135B2001B0BDE8304000F093BB0C49012008707F
S1135B304FF0FF301549086070471548C16849089F
S1135B404900C160016841F4807101600549096838
S1135B504165C16841F00101C160704764010020E2
S1135B6000E400E008010020408DFF1F688FFF1F44
S1135B70002003401CC00240408FFF1F00800040F3
S1135B8000C002402501002026010020A0A00440FE
S1135B9010C00240F0B50D460646202D81B03446B3
S1135BA000D3FEE76846FFF775F83146FF2908BFC2
S1135BB02C462FD0B542DFF8C8030BD205EB850184
S1135BC000EB81012C460E7406EB860100EB81008C
S1135BD044741FE001EB810300EB83031B7CFF2B68
S1135BE002D019468D42F5DA01EB810305EB8506F7
S1135BF0A94200EB830300EB860602DA1D7471747C
S1135C0008E05A7C02EB820700EB8700057472748B
S1135C1031745D740098FFF742F8204601B0F0BD7E
S1135C2070B50E460546202E82B02C4600D3FEE702
S1135C306846FFF72FF8FF2D1DD0D14806EB8601EB
S1135C40AE4200EB810105D105EB850200EB820039
S1135C50047C0DE04A7C0B7C02EB820500EB85059D
S1135C60FF2B2B7404D003EB830500EB85004274F7
S1135C70FF20487408740098FFF711F8204602B01A
S1135C8070BDBF490020FF2281F8802281F8812263
S1135C9084460B1D4A740A748A74C3F800C0C3F89E
S1135CA004C0C3F808C001F11403801C5A741A74A8
S1135CB09A74283143F804CF2028C3F804C0C3F8E9
S1135CC008C0E6D370472DE9F04381460127B9F1B6
S1135CD0200F81B00D46164643D2002D41D0DFF887
S1135CE0A08209EB89000C2E08EB800439D1A07C3A
S1135CF010B1012808D015E098F880024946FFF752
S1135D008FFF88F8800206E098F881024946FFF781
S1135D1087FF88F88102FF20A0740021201D016004
S1135D2041608160281D211D02680A6042684A6042
S1135D308068886066700020A0700B216520E07088
S1135D40601CFFF746F92070494698F88002FFF777
S1135D5021FF88F880020020A07401B03846BDE815
S1135D60F0830027384601B0BDE8F08330B4012346
S1135D7020280ED2824C00EB800504EB8500847C45
S1135D80002C06BF0860407800201070184630BC14
S1135D90704730BC0023184670472DE9F043814614
S1135DA00127B9F1200F81B00D46164642D2002DCD
S1135DB040D0DFF8CC8109EB8900102E08EB800479
S1135DC038D1A07C10B1012808D015E098F88002E1
S1135DD04946FFF725FF88F8800206E098F881021B
S1135DE04946FFF71DFF88F88102FF20A0740021B7
S1135DF0201D016041608160281D211D02680A6028
S1135E0042684A608068886066700020A0700F2134
S1135E106520E070601CFFF7DCF82070494698F8B4
S1135E208102FFF7B7FE88F88102A774384601B0F3
S1135E30BDE8F0830027384601B0BDE8F08330B4F4
S1135E40012320280ED24E4C00EB800504EB850084
S1135E50847C012C06BF086040780020107018462E
S1135E6030BC704730BC0023184670472DE9F04F12
S1135E7081B08B460021009101266946FEF769FF37
S1135E8000287BD00098DFF8F880071D3868C0F33D
S1135E9040500028786804D1C0F38A4998F88002F9
S1135EA005E04FEAC00998F881024FEAD909FF28B2
S1135EB01DD1304601B0BDE8F08F6A0FEB00456894
S1135EC04FEAC50EDB084FEA957C4FEADE0E6AB155
S1135ED0BCF1000F29D0BCF1020F01D020D305E0A2
S1135EE023EA0E05A94528BF4B4522D2207CFF2872
S1135EF040D000EB800108EB81043968201DC1F318
S1135F00405100290568D8D1EA0E4FEA455E4FEAB0
