S01A00004C6564426C696E6B696E675379735469636B2E73726563FD
S21401000018E8FF1F09070100AB060100DF06010023
S21401001000000000000000000000000000000000DA
S214010020000000000000000000000000670701005B
S2140100300000000000000000730701004B050100EE
S214010040A1070100A9070100B1070100B9070100D6
S2140100500108010001080100010801000108010072
S214010060C1070100C9070100D1070100D907010036
S214010070E1070100E9070100F1070100010801009D
S2140100800108010001080100010801000108010042
S214010090010801000108010001080100F90701003B
S2140100A00108010001080100010801000108010022
S2140100B00108010001080100010801000108010012
S2140100C000004001000000000000000000000000E9
S2080100D00000000026
S214010400FFFFFFFFFFFFFFFFFFFFFFFFFEFFFFFFF7
S214010410F0B540B2002821D5654B40B20207120F55
S214010420083A920804246243614C40B205072D0F36
S214010430083DAD08042675436459FF258607B60FA7
S21401044008277E43B540AC438901C9B28007800FB7
S214010450082568438140214399501AE0554A40B225
S214010460830804246343D258FF238407A40F082576
S2140104706C43A3409A438901C9B283079B0F0824A2
S2140104806343994011434B4A40B2800804235843C2
S2140104901150F0BD80B5411E80225204914201D315
S2140104A001200EE0401E4449086003210020C0439D
S2140104B0FFF7AEFF00204149086007204049086069
S2140104C0002002BD80B500F009F83E480068FA2118
S2140104D0890000F093F8FFF7DDFFFEE73A48006871
S2140104E0802149010143384801603748006880216E
S2140104F0890101433448016034480068802149007D
S21401050001433248016032480068802149000143B6
S2140105102F4801602F480068202101432D480160C3
S2140105202D4800688021890501432B4801602B482E
S214010530006820210143294801602948006880217C
S2140105408905014326480160704700B5FA2040003E
S2140105502449086024480068401C23490860214853
S214010560006821490968884209D22048006880212C
S214010570890501431D48016000201B490860FA20D7
S2140105801B4908601B480068401C1A490860184847
S214010590006818490968884208D21748006820216F
S2140105A001431548016000201249086000BD0000A3
S2140105B01CED00E000E400E014E000E018E000E0DC
S2140105C010E000E000E0FF1F3880044014C0044043
S2140105D074D00440D4F00F4014F10F40C8F00F401F
S2140105E008F10F400CE0FF1F04E0FF1F0CF10F4065
S2140105F010E0FF1F08E0FF1FCCF00F400022030AA7
S2140106008B420BD203098B4219D243088B422ED25E
S214010610411A00D20146524110467047FF22090294
S2140106203FD012068B4205D3121209028B4201D328
S2140106301212090203098B4219D300E0090AC30901
S2140106408B4201D3CB01C01A524183098B4201D39D
S2140106508B01C01A524143098B4201D34B01C01A88
S214010660524103098B4201D30B01C01A5241C30800
S2140106708B4201D3CB00C01A524183088B4201D36F
S2140106808B00C01A524143088B4201D34B00C01A5B
S2140106905241884200D3401A5241CFD201461046F9
S2140106A0704708B500F002F808BDFEE7704730B4A1
S2140106B001210268001D002A0FD00368C318446890
S2140106C008300C4202D04D466D1E64191D68256027
S2140106D01B1D241D121FECD0F8E730BC7047FEE747
S2140106E010B5074979441831064C7C44163404E0A9
S2140106F0081D0A68891888470100A142F8D110BD73
S2140107002C0000003C00000072B604480449016059
S2140107100448804762B604480047000008ED00E040
S21401072000000100890701009507010083FFFFFF14
S214010730140000008CF9FFFF00E0FF1F000000001E
S21401074000F00BF8002801D0FFF7CAFF002000BF19
S21401075000BFFFF7B7FE00F002F80120704780B532
S21401076000F002F801BDFEE70746384600F002F841
S214010770FBE7FEE780B500BF00BF024A1100182064
S214010780ABBEFBE726000200002001490860704767
S2140107900081044000BF00BF00BF00BFFFF7D0FFCD
S2140107A00048004701080100004800470108010011
S2140107B00048004701080100004800470108010001
S2140107C000480047010801000048004701080100F1
S2140107D000480047010801000048004701080100E1
S2140107E000480047010801000048004701080100D1
S2140107F000480047010801000048004701080100C1
S20C010800004800470108010051
S8040107955E
