S01300004C6564426C696E6B696E672E73726563CE
S21401000000E8FF1F79010100C3010100CF010100D3
S21401001000000000000000000000000000000000DA
S2140100200000000000000000000000006502010062
S21401003000000000000000006702010069020100E4
S214010040FD010100050201000D020100150201007B
S2140100505D0201005D0201005D0201005D0201001A
S2140100601D020100250201002D02010035020100DA
S2140100703D020100450201004D0201005D02010042
S2140100805D0201005D0201005D0201005D020100EA
S2140100905D0201005D0201005D02010055020100E2
S2140100A05D0201005D0201005D0201005D020100CA
S2140100B05D0201005D0201005D0201005D020100BA
S2140100C080B500F010F800F039F82148006880216A
S2140100D0890501431E4801601E480068202101432E
S2140100E01C480160EFE71C480068C02189010143F4
S2140100F019480160802040001849086018480068C7
S2140101008021890501431648016016480068802150
S21401011089050143134801608020400012490860A8
S2140101201248006820210143104801601048006809
S214010130202101430E4801607047000000B50020F1
S21401014001E000BF401C0B498842FAD300BD000005
S2140101500C0100F8CC0000F83880044074D004404C
S214010160140100F8040100F814C00440D40000F89B
S214010170C40000F840420F0072B60448044901600A
S2140101800448804762B604480047000008ED00E0D6
S21401019000000100E5010100F101010000F00BF88B
S2140101A0002801D000BF00BF002000BF00BFFFF73E
S2140101B087FF00F002F80120704780B500F002F8D2
S2140101C001BDFEE70746384600F002F8FBE7FEE70A
S2140101D080B500BF00BF024A11001820ABBEFBE786
S2140101E02600020000200149086070470081044093
S2140101F000BF00BF00BF00BFFFF7D0FF00480047A9
S2140102005D020100004800475D020100004800470A
S2140102105D020100004800475D02010000480047FA
S2140102205D020100004800475D02010000480047EA
S2140102305D020100004800475D02010000480047DA
S2140102405D020100004800475D02010000480047CA
S2140102505D020100004800475D02010000480047BA
S20E0102605D020100FEE7FEE7FEE77F
S214010400FFFFFFFFFFFFFFFFFFFFFFFFFEFFFFFFF7
S8040101F108
