S02000004C6564426C696E6B696E675379735469636B427574746F6E2E737265637B
S21401000018E8FF1F050A0100A7090100DB09010026
S21401001000000000000000000000000000000000DA
S214010020000000000000000000000000630A01005C
S21401003000000000000000006F0A0100D705010063
S214010040C90A0100D10A0100D90A0100E10A01002A
S214010050290B0100290B0100290B0100290B0100C6
S214010060E90A0100F10A0100F90A0100010B010089
S214010070090B0100110B0100190B0100290B0100EE
S214010080290B0100290B0100290B0100290B010096
S214010090290B0100290B0100290B0100210B01008E
S2140100A0290B0100290B0100290B0100290B010076
S2140100B0290B0100290B0100290B01005D06010037
S2140100C000004001000000000000000000000000E9
S20C0100D0000000000000000022
S214010400FFFFFFFFFFFFFFFFFFFFFFFFFEFFFFFFF7
S2140104100121C006C00E8140A2480160704701213B
S214010420C006C00E8140A04801607047F0B540B2DA
S214010430002821D59D4B40B20207120F083A9208B8
S21401044004246243994C40B205072D0F083DAD08C0
S214010450042675436459FF258607B60F08277E4391
S214010460B540AC438901C9B28007800F08256843AF
S2140104708140214399501AE08D4A40B283080424F2
S2140104806343D258FF238407A40F08256C43A34077
S2140104909A438901C9B283079B0F08246343994095
S2140104A01143834A40B28008042358431150F0BDDB
S2140104B080B5411E80225204914201D301200EE0F4
S2140104C0401E7C49086003210020C043FFF7AEFFB1
S2140104D0002079490860072078490860002002BD9D
S2140104E080B500221D21764800F00EF90022052174
S2140104F0744800F009F901220321734800F004F959
S21401050001220C21704800F0FFF801210020C043B1
S214010510FFF78CFF0020C043FFF781FF6B480068A0
S214010520FA21890000F080F9FFF7C2FF00F08AF88F
S21401053000F001F8FCE700B56548007801281AD1FB
S21401054064480078401C63490870624800780528B2
S21401055002D100205F4908705F480078401C5E4960
S21401056008705D480078062802D100205A490870B4
S2140105700020574908705948007801281AD1554873
S2140105800078401E5349087052480078FF2802D16F
S21401059004205049087050480078401E4E490870A3
S2140105A04D480078FF2802D105204B4908700020ED
S2140105B04A4908704A484749097804225143405835
S2140105C0484908604848444909780422514340583C
S2140105D04649086000BD80B545480068401C44494E
S2140105E0086044483F49096800F075F900F0C8F909
S2140105F040083F490968884209D23F48006880217F
S214010600890501433C4801600020394908603B48A0
S2140106100068401C3949086036483449096800F0CA
S2140106205AF900F0ADF9400834490968884208D201
S21401063033480068202101433148016000202F49DA
S214010640086001BD80B500211F20FFF7EFFE1F20C7
S214010650FFF7E5FE1F20FFF7DBFE01BD00B52948C9
S214010660006801000907C90F002902D001201849B6
S2140106700870244800680100C904C90F002902D087
S2140106800120164908701F480068082101431D48CB
S21401069001601C4800688021490101431948016036
S2140106A000BD000000E100E080E200E01CED00E09B
S2140106B000E400E014E000E018E000E010E000E0F4
S2140106C000F10F40C0F00F4080F00F4000E0FF1F28
S2140106D014E0FF1F16E0FF1F17E0FF1F15E0FF1FC6
S2140106E09C0A010004E0FF1F840A010008E0FF1FC6
S2140106F00CE0FF1F00007A440CF10F4010E0FF1FD2
S214010700CCF00F40A0B0044030B53C4CA04208D11C
S2140107103B4B1B688024A4001C43394B1C60394B9F
S2140107202EE0394CA04208D1354B1B688024E400EA
S2140107301C43334B1C60354B22E0354CA04208D19C
S2140107402F4B1B68802424011C432D4B1C60314B0E
S21401075016E0314CA04208D1294B1B688024640165
S2140107601C43274B1C602D4B0AE02D4CA04207D1A1
S214010770234B1B688024A4011C43214B1C60294B7E
S214010780C9B204244C431C5980256D002543C9B2C7
S21401079004244C431D51D2B2002A0AD142690123D6
S2140107A08B4013434361826801238B40134383606C
S2140107B023E0426901248C40A2434261C9B204206D
S2140107C04843185802220243C9B2042048431A502B
S2140107D0C9B204204843185801220243C9B2042072
S2140107E048431A50C9B2042048431858A02212039D
S2140107F00243C9B2042041435A5030BD00F00F40B5
S214010800388004400090044040F00F4000A00440AF
S21401081080F00F4000B00440C0F00F4000C004401C
S21401082000F10F4000D004400022030A8B420BD295
S21401083003098B4219D243088B422ED2411A00D2A9
S2140108400146524110467047FF2209023FD0120668
S2140108508B4205D3121209028B4201D312120902EE
S21401086003098B4219D300E0090AC3098B4201D35D
S214010870CB01C01A524183098B4201D38B01C01AA6
S214010880524143098B4201D34B01C01A524103091D
S2140108908B4201D30B01C01A5241C3088B4201D3CC
S2140108A0CB00C01A524183088B4201D38B00C01A79
S2140108B0524143088B4201D34B00C01A5241884231
S2140108C000D3401A5241CFD201461046704708B5B0
S2140108D000F06AF808BD30B405004D400122D20789
S2140108E015404B180418240E28D01B0E2FD0FF2CB1
S2140108F034D0FF2B37D0E41A00020902104311430B
S21401090043084808D10D1B1A02D2641EDB181B18B7
S214010910DB18834200D31B1A4941F9D37F3426DD05
S214010920FE2C08DAE4054808C907194391416041DD
S214010930284330BC7047FF20C005F9E728001B0E8E
S21401094003D0FF2BF5D14902F3D0D043F1E7FF2CBA
S21401095001D14002F9D1FF20C005E9E74002F4D1F8
S214010960FF2BF8D1F1E728004902E2D0EDE70B02B0
S21401097000202442DCD15B129B1CD9D9D805D7E7CD
S21401098000180ED2010E7F390BD449421F3105D40F
S214010990C0010122D2071043C84070470020401E04
S2140109A0704700207047FEE7704730B401210268A7
S2140109B0001D002A0FD00368C318446808300C4293
S2140109C002D04D466D1E64191D6825601B1D241D31
S2140109D0121FECD0F8E730BC7047FEE710B50749A8
S2140109E079441831064C7C44163404E0081D0A6824
S2140109F0891888470100A142F8D110BD2C000000DB
S214010A003C00000072B6044804490160044880476F
S214010A1062B604480047000008ED00E0000001004F
S214010A20B10A0100BD0A010083FFFFFF18000000A4
S214010A3090F6FFFF00E0FF1F0000000000F00BF83B
S214010A40002801D0FFF7CAFF002000BF00BFFFF754
S214010A5047FD00F002F80120704780B500F002F86B
S214010A6001BDFEE70746384600F002F8FBE7FEE761
S214010A7080B500BF00BF024A11001820ABBEFBE7DD
S214010A8026000200000040400000A0400000004197
S214010A900000C04000000040000080400000803F91
S214010AA0000040400000C040000080400000A04020
S214010AB000200149086070470081044000BF00BF64
S214010AC000BF00BFFFF7BAFF00480047290B01002F
S214010AD000480047290B010000480047290B010088
S214010AE000480047290B010000480047290B010078
S214010AF000480047290B010000480047290B010068
S214010B0000480047290B010000480047290B010057
S214010B1000480047290B010000480047290B010047
S214010B2000480047290B010000480047290B010037
S804010ABD33
