S01F00004170705F4C6564426C696E6B696E675F307832303030302E7372656349
S21402000000E8FF1F79010200C3010200CF010200CF
S21402001000000000000000000000000000000000D9
S2140200200000000000000000000000006502020060
S21402003000000000000000006702020069020200E1
S214020040FD010200050202000D0202001502020076
S2140200505D0202005D0202005D0202005D02020015
S2140200601D020200250202002D02020035020200D5
S2140200703D020200450202004D0202005D0202003D
S2140200805D0202005D0202005D0202005D020200E5
S2140200905D0202005D0202005D02020055020200DD
S2140200A05D0202005D0202005D0202005D020200C5
S2140200B05D0202005D0202005D0202005D020200B5
S2140200C080B500F010F800F039F821480068802169
S2140200D0890501431E4801601E480068202101432D
S2140200E01C480160EFE71C480068C02189010143F3
S2140200F019480160802040001849086018480068C6
S214020100802189050143164801601648006880214F
S21402011089050143134801608020400012490860A7
S2140201201248006820210143104801601048006808
S214020130202101430E4801607047000000B50020F0
S21402014001E000BF401C0B498842FAD300BD000004
S2140201500C0100F8CC0000F83880044074D004404B
S214020160140100F8040100F814C00440D40000F89A
S214020170C40000F840420F0072B604480449016009
S2140201800448804762B604480047000008ED00E0D5
S21402019000000200E5010200F101020000F00BF887
S2140201A0002801D000BF00BF002000BF00BFFFF73D
S2140201B087FF00F002F80120704780B500F002F8D1
S2140201C001BDFEE70746384600F002F8FBE7FEE709
S2140201D080B500BF00BF024A11001820ABBEFBE785
S2140201E02600020000200149086070470081044092
S2140201F000BF00BF00BF00BFFFF7D0FF00480047A8
S2140202005D020200004800475D0202000048004707
S2140202105D020200004800475D02020000480047F7
S2140202205D020200004800475D02020000480047E7
S2140202305D020200004800475D02020000480047D7
S2140202405D020200004800475D02020000480047C7
S2140202505D020200004800475D02020000480047B7
S20E0202605D020200FEE7FEE7FEE77D
S214020400FFFFFFFFFFFFFFFFFFFFFFFFFEFFFFFFF6
S8040201F107
